:020000040800F2
:10000000E8940020DD0100082B1F0008531A0008A7
:10001000291F0008610600083B2A000800000000B4
:100020000000000000000000000000002D29000872
:1000300063060008000000002D1F00082F2900089B
:10004000F7010008F7010008F7010008F7010008B0
:10005000F7010008F7010008F7010008F7010008A0
:10006000F7010008F7010008F7010008F701000890
:10007000F7010008F7010008F7010008F701000880
:10008000F7010008F7010008F7010008F701000870
:10009000F7010008F7010008F7010008F701000860
:1000A000F7010008F7010008F7010008F701000850
:1000B000F7010008F7010008F7010008F701000840
:1000C000F7010008F7010008F7010008F701000830
:1000D000F7010008F7010008F7010008F701000820
:1000E000F7010008F7010008F7010008F701000810
:1000F000F7010008F7010008F7010008F701000800
:10010000F7010008F7010008F7010008F7010008EF
:10011000F7010008F7010008F7010008F7010008DF
:10012000F7010008F7010008F7010008F7010008CF
:1001300000F002F800F042F80AA090E8000C8244B7
:100140008344AAF10107DA4501D100F037F8AFF294
:10015000090EBAE80F0013F0010F18BFFB1A43F0A5
:1001600001031847BC540000DC540000103A24BFBF
:1001700078C878C1FAD8520724BF30C830C144BF0C
:1001800004680C607047000000230024002500264E
:10019000103A28BF78C1FBD8520728BF30C148BFEA
:1001A0000B607047642900F0AB80732900F0C781B1
:1001B000002070471FB51FBD10B510BD00F0C9F974
:1001C0001146FFF7F7FF04F0BDF800F0E7F903B4BC
:1001D000FFF7F2FF03BC00F0EBF90000094880478D
:1001E00009480047FEE7FEE7FEE7FEE7FEE7FEE719
:1001F000FEE7FEE7FEE7FEE704480549054A064B31
:10020000704700009129000831010008E8340020FF
:10021000E8940020E8540020E85400200FB41CB5F6
:10022000074B06AA7B4469460090059800F05DF9EB
:100230000020694600F06CF91CBC5DF814FB00005E
:10024000E90200002DE9F0410E460446002020623C
:100250002046E168884730B3252805D0D4E901213C
:100260009047206A401CF2E7E16820460027884753
:10027000050018D0A5F14100192802D820354FF407
:1002800000673246294620462760FFF78BFF40B1C2
:10029000012804D0F61D26F007060836D8E7361DDB
:1002A000D6E72846DAE7206ABDE8F08170B50C464B
:1002B0000546012A05D02878800600D5EA69002382
:1002C00002E0012305E05B1C934202D2E05C0028BF
:1002D000F9D1A869E618C01AA861286A18442862EA
:1002E0002846AFF3008004E0D5E9012114F8010BA2
:1002F0009047B442F8D32846AFF3008070BD0000A9
:100300002DE9F0410646002410687529314616A5EE
:1003100010D0AFF30080002802DA404213A507E0B6
:1003200031688A0701D512A502E0490704D511A555
:10033000012401E0AFF3008000210A2206F1240726
:1003400009E0B0FBF2FCB0FBF2F302FB1C00303022
:1003500078541846491C0028F3D123462A463046D3
:10036000BDE8F04100F062B8000000002D00000080
:100370002B0000002000000040EA0103024630B5D7
:100380009B0710D14FF0013400E008C208C91D1BC3
:100390009D4315EAC41FF8D013F0FF0102F8011BBA
:1003A0000DD01B0AF8E711F8013B002B02F8013BC6
:1003B00005D011F8013B002B02F8013BF3D130BD11
:1003C000421E12F8013F002BFBD111F8013B002B1C
:1003D00002F8013BF9D170474FF0000200B5134617
:1003E00094469646203922BFA0E80C50A0E80C5055
:1003F000B1F12001BFF4F7AF090728BFA0E80C5006
:1004000048BF0CC05DF804EB890028BF40F8042BFE
:1004100008BF704748BF20F8022B11F0804F18BF6B
:1004200000F8012B70477047704770472DE9F0477F
:100430000D4699469246044600F124080168880654
:1004400004D5E06921F01001216000E00120A842FC
:1004500001DD471B00E00027A1697A1902EB0900C2
:10046000081AA0612078C00602D42046AFF30080AD
:10047000002608E0D4E901211AF806009047206A16
:10048000401C761C20624E45F4DB2078C0060AD55D
:100490002046AFF3008006E0D4E9012130209047E8
:1004A000206A401C2062381EA7F10107F4DC07E037
:1004B000D4E9012118F805009047206A401C206209
:1004C000281EA5F10105F3DC2046AFF3008020785B
:1004D000000602D50220BDE8F0870120FBE70000FE
:1004E00001694A1C02610878704700B58FB0CDE9F8
:1004F00001310021059105497944CDE903101146E8
:100500006846FFF79FFE0FB000BD0000E5FFFFFF4C
:100510000A6802F8010B0A60704710B5436913B10D
:10052000AFF3008001E0FFF7C1FE012010BD12789B
:1005300000F124010A7000224A700122EDE71168DF
:100540004FF0FF32E9E70000004870478834002090
:1005500070477546FFF7F8FFAE46050069465346FB
:1005600020F00700854618B020B5FFF745FEBDE82E
:1005700020404FF000064FF000074FF000084FF00A
:10058000000B21F00701AC46ACE8C009ACE8C0099B
:10059000ACE8C009ACE8C0098D46704710B5044608
:1005A000AFF300802046BDE81040FFF710BE00000A
:1005B00001491820ABBEFEE72600020001460148B3
:1005C00000F07CBE2C33002010B5044800F088FEFB
:1005D000042801D0012010BD002010BD2C330020C4
:1005E00010B500F015F8012801D0012010BD074812
:1005F00000F08CFE040006D14FF40061034800F0C7
:1006000005FD00B10124204610BD00002C33002060
:1006100008B501208DF800009DF8000008BD00001D
:1006200038B50024009313460A460146034800F0FB
:1006300005FF00B10124204638BD00002C33002006
:1006400038B50024009313460A460146034800F0DB
:10065000E1FF00B10124204638BD00002C3300200A
:10066000FEE7704701B5009801E0401E00900028A9
:10067000FBD108BD002200F001B8000030B50E4BE0
:10068000054601205C7A012C15D8587A00241C54A8
:10069000587A03EB800045605D7A03F108002A5424
:1006A000587A421C5A72303008703A2048702F2015
:1006B0008870CC70002030BD7C34002030B5B3F59C
:1006C000804F05D06FF0704140F82210002030BDFF
:1006D0008C690B688D6823434C688989240144EA3E
:1006E0000524234343EA014150F82230014C2340C2
:1006F0001943E9E70000F0CF10B50A6850F822303E
:1007000023F0010340F822308C68082C23D000230A
:100710004A682243CC681C430B6922431A434B6945
:100720000E4C1A43CB691A430B6A1A434B6A1A439D
:100730008B6A1A43CB6A1A430B6B1A438B691343B8
:100740004A6B09681A4350F82130A343134340F819
:100750002130002010BD4023DAE700007FFF0F00AA
:1007600030B5D1E9003443EA04138C688D89240242
:1007700044EA054423430C8A094D00EB820005EB53
:10078000045423430C7D6D0105EB04648969234304
:100790000B43416801F040410B434360002030BDF2
:1007A0000000F0FF70B5044600F044F90546601CF7
:1007B00002D004480078044400F03CF9401BA042F9
:1007C000FAD370BD1000002030B585B00020009035
:1007D0000190029003901248016800291ED1012166
:1007E00001601048416941F480714161406902240F
:1007F00000F4807004904FF68070CDE9000403256A
:1008000069460395084800F013F84CF6B370CDE93B
:10081000000469460395054800F00AF805B030BDAC
:1008200008000020001002400018014000140140A0
:100830002DE9F84FDFF8C891002409F1040A0AF104
:10084000040B23460F270BF1040ED1E00125A54030
:1008500006EA0502AA4276D1DFF8A8C14E68A6EBE7
:100860000C0866452BD00DDC032E34D005DC36B3E6
:10087000012E19D0022E2FD11BE0112E16D0122ED0
:100880002AD119E0B8F5881F19D006DCB8F5803FE9
:1008900015D0B8F5801F1FD111E0B8F5001F0ED09C
:1008A000B8F5041F18D10AE0CB6815E0CB681B1D12
:1008B00012E0CB6808330FE0CB680C330CE08B6898
:1008C0002BB1012B4FF0080303D0456104E0042352
:1008D00002E0056100E00023FF2A01D8064601E09E
:1008E00000F104064FEA840501D9A5F12005D6F8E8
:1008F000008007FA05FC28EA0C0803FA05F548EA27
:100900000508C6F800804D68ED0070D53E4DAE6913
:1009100046F00106AE61AD6924F0030605F001055D
:1009200000953A4D06EB050CDCF80850A607360F8B
:1009300007FA06F825EA0805DFF8D480404503D118
:100940004FF0000825E052E0DFF8C880404502D1B2
:100950004FF001081DE0DFF8C080404502D14FF0A4
:10096000020816E0DFF8B480404502D14FF00308DA
:100970000FE0DFF8AC80404502D14FF0040808E0FA
:10098000DFF8A080404502D14FF0050801E04FF0AC
:10099000060808FA06F848EA0508CCF808804D6809
:1009A000D9F80060ED034D4601D5164300E09643AB
:1009B0002E604D68DAF80060AD03554601D5164348
:1009C00000E096432E604D68DBF80060ED025D4666
:1009D00001D5164300E096432E604D68DEF80060B6
:1009E000AD02754601D5164300E096432E60641CA7
:1009F0000A681646E2407FF429AFBDE8F88F000090
:100A000000040140000011100010024000000140ED
:100A100000080140000C014000100140001401409A
:100A200000180140001C01400AB10161704709042F
:100A3000FBE70000014880687047000010000020BC
:100A400002488168027811448160704710000020DC
:100A5000074810B5016841F010010160032000F063
:100A600067F8002000F006F800F024F8002010BD20
:100A70000020024070B50D4D04464FF47A7128787D
:100A8000B1FBF0F00A490968B1FBF0F000F0CCFED0
:100A900048B9102C07D200222146501E00F028F839
:100AA00000206C6070BD012070BD000010000020AF
:100AB0001C0000200C4808B5816941F001018161EA
:100AC000816901F001010091C16941F08051C1616A
:100AD000C06900F0805000900448416821F0E06156
:100AE00041F00071416008BD00100240000001406B
:100AF000F0B40E4B1B680C46C3F30223C3F1070589
:100B0000042D00D90425191D072901D2002300E076
:100B1000DB1E012606FA05F1491E214099409E4040
:100B2000761E16403143F0BC01F088BF0CED00E0AA
:100B3000064900F0070208684FF6FF03184040EA34
:100B40000220034A10430860704700000CED00E0EB
:100B50000000FA052DE9F0470F46050061D0434E2D
:100B6000306800F00700B84209D2306820F0070072
:100B700038433060306800F00700B84251D128682F
:100B80003B4C810712D5400703D5606840F4E06014
:100B900060602878000703D5606840F460506060AA
:100BA0006068A96820F0F000084360602878C007FA
:100BB00028D06868012810D02168022810D0890741
:100BC00000292EDA616821F0030101436160FFF71B
:100BD00031FF804641F288390DE021688903EFE753
:100BE0008901EDE7FFF726FFA0EB0801494502D98F
:100BF0000320BDE8F0876068696800F00C00B0EB86
:100C0000810FEFD1306800F00700B8420BD930688F
:100C100020F0070038433060306800F00700B84229
:100C200001D00120E5E72878400705D56068E9682C
:100C300020F4E060084360602878000706D560680B
:100C4000296920F4605040EAC100606000F018F8A3
:100C50006168084AC1F30311515CC8400649086045
:100C600006480068FFF706FF0020C2E700200240A8
:100C700000100240805000081C00002014000020DA
:100C800012A185B00FC98DE80F0014A0144A0068A6
:100C900004905168134801F00C03042B10D0082B6A
:100CA0000ED1C1F38343C9031DF803000AD551686F
:100CB00004AAC1F34041515C0A4A5043B0FBF1F031
:100CC00005B0704708494843FAE7000002030405ED
:100CD000060708090A0B0C0D0E0F10100102000088
:100CE0000010024000127A0000093D002DE9F84F83
:100CF000040070D02078C04DC00749D06868C0F3A8
:100D00008100012807D06868C0F38100022809D15A
:100D10006868C00306D52868800339D56068002854
:100D2000E7D035E06068B0F5803F0BD010B1B0F58A
:100D3000A02F11D0286820F480302860286820F483
:100D4000802002E0286840F480302860606890B11C
:100D5000FFF770FE06460AE0286840F4802028600D
:100D6000F0E700BFFFF766FE801B642873D8286891
:100D70008003F7D50CE0FFF75DFE064605E000BFF7
:100D8000FFF758FE801B6428F0D828688003F7D44A
:100D900020789A4E80074FF001094FF0000839D5AE
:100DA000686810F00C0F07D06868C0F38100022853
:100DB00009D16868C00306D42868800714D5206963
:100DC000012808D110E02069B0B1C6F80090FFF703
:100DD00031FE074605E00AE1FFF72CFEC01B0228A2
:100DE000C4D828688007F7D52868616920F0F80022
:100DF00040EAC10028600DE0C6F80080FFF71AFE47
:100E0000074604E0FFF716FEC01B022823D8286817
:100E10008007F7D4207800072CD57948A169D9B18B
:100E2000C0F80090FFF706FE074604E0FFF702FE59
:100E3000C01B02280FD8686A8007F7D571484FF4A5
:100E4000FA510068B0FBF1F0009000BF0098411E1D
:100E50000091FAD20EE080E0C0F80080FFF7EAFDD2
:100E6000074604E0FFF7E6FDC01B022875D8686A54
:100E70008007F7D42078400760D5E8690027C000D4
:100E800008D4E86940F08050E861E869012700F083
:100E9000805000905C480168C90513D401688346FE
:100EA00041F480710160FFF7C5FD824606E000BF96
:100EB000FFF7C0FDA0EB0A0064284ED8DBF8000065
:100EC000C005F5D5E06801280AD008B1052813D07F
:100ED000286A20F001002862286A20F0040002E05D
:100EE000286A40F001002862E06841F2883B98B12E
:100EF000FFF7A0FD82460BE0286A40F0040028625C
:100F0000EEE700BFFFF796FDA0EB0A0159455AD85E
:100F1000286A8007F6D50CE0FFF78CFD824605E0D5
:100F2000FFF788FDA0EB0A0159454CD8286A8007D5
:100F3000F6D41FB1E86920F08050E861E06988B319
:100F40006968C1F38101022944D00228C6F8608093
:100F500004D0FFF76FFD044638E034E0FFF76AFD88
:100F6000074604E0FFF766FDC01B02282BD828685F
:100F70008001F7D4206AB0F5803F05D16868A16888
:100F800020F4003008436860D4E908010843696828
:100F900021F4741108436860C6F86090FFF74AFDB9
:100FA000044606E025E000BFFFF744FD001B0228D1
:100FB00009D828688001F7D51BE000BFFFF73AFD8C
:100FC000001B022802D90320BDE8F88F28688001A1
:100FD000F4D40EE00128F7D06868226A00F480316A
:100FE000914204D1616A00F47010884201D001205E
:100FF000EAE70020E8E7000000100240000042425B
:10100000800442421C000020007000402DE9FE4395
:101010000446002603200D4684F83400606C032843
:101020005ED0B5F5805F5BD04FF4006700204FF0D5
:101030008068BD421FD18146009001900021206848
:1010400000F08BFF800113D46946204601F0ACFA12
:1010500007000DD10198400334D5B4F850000104C5
:10106000206800F0AFFF070002D10221206823E0D2
:10107000A06B384328E01DB1A06B40F0006023E076
:101080008146009001900021206800F066FF8001F9
:10109000EED46946204601F087FA0700E8D10198AE
:1010A000C0030FD5B4F850000104206800F08AFF97
:1010B0000700DDD10021206800F0D1FF0700D7D163
:1010C0004F46D5E74746D3E7A063A06B144F4FF0D8
:1010D000010848B12068876384F8348001260EE057
:1010E000A06B40F08050EFE7211DD4E9050C0EC93C
:1010F000CDE90050CDF808C0206800F031FF4FF472
:101100000071206800F092FF28B121688F63A16B05
:101110000143A163012684F834803046BDE8FE8394
:10112000FF054000F0B5426E920F0A70426EC2F3A6
:1011300083624A70426EC2F301628A70426E120C80
:10114000CA70B0F86420120A0A7190F864204A71DB
:10115000826E120DCA80826EC2F303420A72B0F828
:101160006820C2F3C0324A72B0F86820C2F38032FD
:101170008A72B0F86820C2F34032CA72B0F86820B0
:10118000C2F300320A7300264E73426C4FF40075AE
:10119000012462B1012A3AD0026847499163816B08
:1011A00041F08051816380F834400120F0BDB0F8F7
:1011B0006820C36E9205120D42EA93720A61C26EF4
:1011C000C2F3C2620A75C26EC2F302624A75C26E8F
:1011D000C2F342528A75C26EC2F38242CA75C26EAF
:1011E000C2F3C2320A760A69521C42650B7E03F0D2
:1011F00007039B1C9A4042650B7A03F00F0704FA21
:1012000007F383655B0A5A43C0E917250EE090F89F
:101210006820C36E9206920A42EA13420A610A6982
:10122000521C92024265C0E91652056630F86C2FD6
:10123000C2F3803201F8192F0288C2F3C6124A7035
:10124000027802F07F028A704268D20FCA70426848
:10125000C2F341720A714268C2F382624A71426803
:10126000C2F383528A714268C2F34052CA710E724D
:101270004268C2F300424A728288C2F3C0328A7264
:101280008288C2F38032CA728288C2F340320A7303
:101290008288C2F300324A738288C2F381228A7341
:1012A0008288C2F30122CA730079C0F34600087431
:1012B0004C740020F0BD0000FF054000426C0A6045
:1012C000826C4A60C26C8A60026DCA60426D0A61BB
:1012D000826D4A61C26D8A61006EC86100207047EC
:1012E00070B50446B0F8500000250104206800F0F5
:1012F000C0FF18B1A16B0143A16304E00021206885
:1013000000F02BFE0546C5F3432070BD70B5040008
:101310000ED094F83400002518B92577204600F047
:101320004BF8032084F83400204600F00BF808B195
:10133000012070BDA5632563012084F834000020DE
:1013400070BD0000FEB50025044676200095CDE96D
:10135000015029460B460A46206800F001FE28BBD2
:10136000134E46F8A05F206800F00CFE01253560A2
:10137000204601F0FDF928B184F83450A16B0143F7
:10138000A16313E0204601F07CF90028F4D14FF46A
:101390000071206800F04AFE002808D02268054944
:1013A0009163A16B0143A16384F834500120FEBD19
:1013B00000003042FF05400030B585B000210091AB
:1013C0000191029103910068184988422BD1184875
:1013D000416941F480614161416901F48061049196
:1013E000816941F010018161816901F0100104916E
:1013F000816941F0200181618069022400F02000B0
:1014000004904FF4F850CDE9000403256946039594
:101410000848FFF70DFA0420CDE90004694603955A
:101420000548FFF705FA05B030BD00000080014017
:101430000010024000100140001401402DE9F04F5F
:1014400087B09B4616460D460446FFF7F3FA009018
:101450003DB194F83400012807D0A06B40F0005053
:101460000DE0A06B40F0006009E00020A063E26D99
:1014700006EB0B01914204D9A06B40F00070A06311
:1014800086E0032184F834102168C862616C012968
:1014900000D076024FF0FF3101914FEA4B210291CB
:1014A0004FF0010803AA902102278146CDF8188049
:1014B00082E8820201A9206800F039FDBBF1010F2A
:1014C00005D927633146206800F044FE05E0C4F8E2
:1014D00030803146206800F056FEDFF834A130B18C
:1014E0002268C2F838A0A16B0143A1634CE0029EC0
:1014F0001EE0406B000413D596B10027206800F071
:1015000049FD05F8010B010A05F8011B010C05F85E
:10151000021B000E361F7F1C05F8010C082FEDD3AF
:10152000FFF788FA0099411A109881421DD2E0B164
:101530002068426B40F22A310A42DAD0416BC90579
:1015400009D5BBF1010F06D9616C032903D000F066
:10155000C1FE0028C4D12068416B09071AD5C0F824
:1015600038A0A06B40F0080050E02168C1F838A016
:10157000A06B40F00040A06384F83480C4F8309041
:10158000032007B0BDE8F08F84F83480C4F83090B1
:101590000120F6E7416B890705D5C0F838A0A06B9C
:1015A00040F0020032E0416B89061BD5C0F838A03C
:1015B000A06B40F0200029E000F0ECFC05F8010BE6
:1015C000010A05F8011B010C05F8021B000E05F8C5
:1015D000010C361FFFF72EFA0099411A109881422C
:1015E0000ED268B12068416B890201D5002EE3D18B
:1015F000216840F23A50886384F834800020C0E7C4
:101600002168C1F838A0A06B40F00040A063BBE7A0
:10161000FF0540002DE9F04F8DB09B4616460D4664
:101620000446FFF707FA0A903DB194F83400012808
:1016300007D0A06B40F000500DE0A06B40F00060C0
:1016400009E00020A063E26D06EB0B01914204D992
:10165000A06B40F00070A0637AE0032184F834109E
:101660002168C862616C012900D076024FF0FF3119
:1016700003914FEA4B2104919021CDE905104FF0E1
:101680000109CDE90709824603A9206800F04FFC53
:10169000BBF1010F06D9202020633146206800F0FD
:1016A00033FE05E0102020633146206800F045FE3F
:1016B0005FEA000806D0216840488863A06B40EAD2
:1016C000080071E0049E27E0406B40041CD5DEB1A9
:1016D0005FF0000715F8010B009015F8011B361F8D
:1016E00040EA0120009015F8021B40EA01400090FA
:1016F00015F8011C40EA016000906946206800F07E
:101700005CFC7F1C082FE5D3FFF794F90A99411A76
:101710001698814220D2F8B12068416B40F21A320B
:101720001142D1D0416BC90523D5BBF1010F20D99E
:10173000616C03291DD000F0CDFDD0B122681F4996
:101740009163A16B0143A16384F83490C4F830A085
:1017500001200DB0BDE8F08F216818488863A06BA8
:1017600040EA0800A06384F83490C4F830A0032055
:10177000EFE72068416B090705D510498163A06B2D
:1017800040F0080010E0416B890705D50B498163E3
:10179000A06B40F0020007E0416BC90606D507497F
:1017A0008163A06B40F01000A063CDE740F23A5196
:1017B000816384F834900020CBE70000FF054000EF
:1017C00070B515460E46040007D0A069B0F5807FBD
:1017D00003D094F8410010B107E0012070BD002053
:1017E00084F84000204600F01DF804F1080120684C
:1017F000FEF782FF3146A2682068FEF7B1FFD4E908
:1018000001022946236BFEF759FFA168206850F8B2
:10181000212042F0010240F82120012084F84100FB
:10182000002070BDFEF7D0BF10B5401EB0F1807F24
:1018300001D3012010BD4FF0E02460610F2160173B
:1018400001F0FCF80020A06107202061002010BDFD
:1018500070B590F83C20012A2CD0012480F83C403F
:10186000022280F83D2003685A689D6822F07006C5
:101870000A6832435A60104B02689A420ED00F4BEE
:101880009A420BD0B2F1804F08D00D4B9A4205D04E
:101890000C4B9A4202D00C4B9A4204D1496825F075
:1018A00080031943916080F83D40002180F83C108E
:1018B000084670BD022070BD002C0140003401407C
:1018C0000004004000080040000C00402DE9F041F9
:1018D0000D46040003D094F83D0018B108E0012043
:1018E000BDE8F081002084F83C00204600F040F87C
:1018F000022084F83D002068816844F20702914389
:101900008160211D206801F045F822689068916986
:10191000166A2B68AF69034340F20330814341EA02
:101920000721A868EF6908434FF6FC418843E9683E
:1019300040EA0720014328692F6A000140EA073086
:10194000084369686D6926F0220646EA05152943B1
:1019500093602268906154F8460B0162012004F8FC
:101960001F09E0752076E0762077A0750020B7E7A4
:1019700000B585B0002100910191029103910068AA
:101980000D49884216D10D48C16941F00201C1617B
:10199000C16901F002010491816941F00401816192
:1019A0008069694600F004000490C020009004485B
:1019B000FEF73EFF05B000BD0004004000100240ED
:1019C0000008014070B590F83E60044690F83F5022
:1019D00090F8423090F84320022021B104290ED023
:1019E000012E1BD114E0012E18D1012B16D184F841
:1019F0003E0084F8420001220021206820E0012DF1
:101A00000CD1012A0AD184F83F0084F8430014E085
:101A1000012D03D1012B01D1012A01D0012070BD7C
:101A200084F83E0084F83F0084F8420084F84300C4
:101A300001220021206800F0F3FF01220421206828
:101A400000F0EEFF2068016841F001010160002014
:101A500070BDFEE7044B4FF4805108B1002200E056
:101A600001221846FEF7E0BF0014014070B51D4684
:101A70001446049E00F072F804FB05F03146BDE800
:101A8000704000F049B8000070B5203AD4B210237D
:101A9000082200F063F82C20C10608800C490D4B89
:101AA00001EB041500204FF6FF742A5C0021D607D5
:101AB00002D01F261E8000E01C80491C5208C9B2BB
:101AC0000829F4D3401CC0B21028EED370BD00002A
:101AD000104A000800000260F0B516460D460446A4
:101AE0004FF4A07714E000BF04F10800F02802D9F9
:101AF00000241035ADB205F11000B84201D9002420
:101B0000254629462046FFF7BFFF0834A4B2761CBD
:101B10003278002AE8D1F0BD10B500222C23DC0673
:101B20002380034B01E01980521C8242FBD310BD7D
:101B30000000026008B50120FFF78CFF00F0EAF812
:101B400000F02CF84FF6FF70002100904FF4A073C6
:101B5000F0220846FFF78AFF08BD000070B54FF07D
:101B6000C0452A242C800C4C060A2680C6B226804A
:101B70001044401E020A2280C0B220802B20288000
:101B8000080A2080C8B22080C818401E010A21809F
:101B9000C0B2208070BD00000000026000B54FF0B0
:101BA000C041CF2008805948002202808122028053
:101BB00030220280ED220A80642202800322028009
:101BC0001222028081220280E8220A80852202807D
:101BD0001022028078220280CB220A8039220280E1
:101BE0002C22028000220280342202800222028003
:101BF000F7220A8020220280EA220A800022028044
:101C00000280B1220A80002202801B220280B622BA
:101C10000A800A220280A2220280C0220A80352283
:101C20000280C1220A8011220280C5220A80452238
:101C300002800280C7220A80A2220280F2220A8049
:101C40000022028026220A8001220280E0220A80ED
:101C50000F22028026220280242202800B22028090
:101C60000E2202800922028054220280A8220280D1
:101C7000462202800C220280172202800922028062
:101C80000F2202800722028000220280E1220A80C5
:101C900000220280192202801B220280042202807C
:101CA00010220280072202802A220280472202801C
:101CB0003922028003220280062202800280302222
:101CC0000280382202800F22028036220A80C82237
:101CD00002802A220A800022028002800280EF22F3
:101CE00002802B220A8000220280028001220280D0
:101CF0003F2202803A220A80552202801120088069
:101D00000348FEF7AFFC2920088000BD00000260F8
:101D1000FCBF020070B50A4C002202212046FEF7EB
:101D200083FE084D2846FEF79DFC01220221204635
:101D3000FEF77AFE2846BDE87040FEF793BC00002F
:101D400000180140FCBF020010B504490448FEF72A
:101D500091FC0249491E087010BD000001000020DE
:101D60000C56000800B587B01C216846FEF734FB0E
:101D700017484FF0204110220160164941600021B0
:101D80008160C160C0E904128161C1611302016216
:101D9000C0E90913C1620163416381630F20FF231E
:101DA0000090CDE90103CDE903021120CDE9050141
:101DB000002269460648FFF703FD08B172B6FEE748
:101DC0000548C16941F48061C16107B000BD0000F0
:101DD000F8330020040100A0000001402DE9F04785
:101DE00086B00024314800940194029403948169E0
:101DF00041F010018161816901F010010491816954
:101E000041F004018161816901F00401049181695B
:101E100041F008018161816901F008010491816943
:101E200041F040018161816901F0400104918169C3
:101E300041F0200181618069DFF8748000F02000AA
:101E40000490012223214046FEF7EEFDDFF8649066
:101E50004FF48057002239464846FEF7E5FDDFF88B
:101E600058A0002202215046FEF7DEFD2320012566
:101E70000326CDE90005CDE9024669464046FEF756
:101E8000D7FC00970396CDE9015469464846FEF712
:101E9000CFFC0220CDE90005CDE902466946504657
:101EA000FEF7C6FC06B0BDE8F08700000010024057
:101EB000000C0140001401400018014010B58CB026
:101EC00024216846FEF788FA00241648099414492C
:101ED0000A94C0E900144FF6FF71C0E902410461A1
:101EE00084610320CDE900040120CDE902040F2123
:101EF0000491CDE90540CDE9074169460948FFF75E
:101F0000E5FC08B172B6FEE7099409A905480A94F0
:101F1000FFF79EFC002801D072B6FEE70CB010BDA2
:101F200000040040B0330020FEE7FEE770470A6877
:101F300042624A688262D1E902231A43D1E904313C
:101F40000B43C16A1A4321F0F7011143C16200201B
:101F50007047006800F0030070470844406970470C
:101F600070B50DF1100C11439CE870002343194328
:101F700029434268314347F6FF639A430A4342606C
:101F8000002070BD10B5032101600220FEF70AFC9D
:101F9000002010BDD0F8800070470A688260D1E947
:101FA00001231A43D1E903310B43C1681A436FF38C
:101FB0000B011143C160002070470968C0F8801010
:101FC0000020704710B586B004463720CDE90010D8
:101FD00040200290002003904FF4806004906946F6
:101FE0002046FFF7DAFF41F288323721204600F021
:101FF000BDF906B010BD000010B504460A4886B011
:1020000001432920CDE900104020029000200390D8
:102010004FF48060049069462046FFF7BEFF2046DB
:1020200000F05CFA06B010BD0000108010B586B05C
:1020300004461020CDE900104020029000200390BB
:102040004FF48060049069462046FFF7A6FF41F2F6
:1020500088321021204600F089F906B010BD10B575
:1020600086B004460620CDE90010402002900020F2
:1020700003904FF48060049069462046FFF78DFF7F
:1020800041F288320621204600F070F906B010BDFA
:1020900030B585B000240546009401944FF480606B
:1020A0000294CDE9034069462846FFF776FF0B48C6
:1020B0004FF4FA510068B0FBF1F041F28831484327
:1020C000401E03D24FF0004005B030BD696B0906D9
:1020D000F6D5C520A8632046F6E700001C000020C6
:1020E00070B585B004464FF4D570009001A9082062
:1020F0004025002681E86100C00104906946204621
:10210000FFF74BFF12484FF4FA510068B0FBF1F0B3
:1021100041F288314843401E03D24FF0004005B0E1
:1021200070BD616B11F0450FF5D00905F3D4606BFC
:10213000400701D5042003E0606BC00702D00120F6
:10214000A063ECE7606B400600D5A5633046E6E788
:102150001C00002010B586B004461220CDE9001006
:1021600040200290002003904FF480600490694664
:102170002046FFF712FF41F288321221204600F07C
:10218000F5F806B010BD10B586B004461120CDE9B3
:10219000001040200290002003904FF480600490D3
:1021A00069462046FFF7F9FE41F2883211212046A8
:1021B00000F0DCF806B010BD10B586B0044607206C
:1021C000CDE9002040200290002003904FF4806071
:1021D000049069462046FFF7E0FE41F2883207216D
:1021E000204600F0C3F806B010BD10B586B0044616
:1021F00000210220CDE90010C020CDE902014FF4FA
:102200008060049069462046FFF7C7FE204600F034
:102210003DF906B010BD10B586B004460920CDE9E1
:102220000010C0200290002003904FF480600490C2
:1022300069462046FFF7B1FE204600F027F906B0B8
:1022400010BD10B586B0044600213320CDE9001042
:102250004020CDE902010001049069462046FFF7C5
:102260009CFE41F288323321204600F07FF806B010
:1022700010BD10B586B004460D20CDE900104020F9
:102280000290002003904FF480600490694620463D
:10229000FFF783FE41F288320D21204600F066F8F8
:1022A00006B010BD30B585B00C46054600210320B0
:1022B000CDE900104020CDE90201000104906946FB
:1022C0002846FFF76AFE22460321284600F028F937
:1022D00005B030BD10B586B0044600210C20CDE914
:1022E00000104020CDE9020100010490694620461B
:1022F000FFF753FE034A0C21204600F037F806B0E2
:1023000010BD000000E1F50510B586B004461920A7
:10231000CDE9001040200290002003904FF480602F
:10232000049069462046FFF738FE41F288321921B1
:10233000204600F01BF806B010BD10B586B004466C
:102340001820CDE9001040200290002003904FF4A7
:102350008060049069462046FFF71FFE41F28832F4
:102360001821204600F002F806B010BD454B10B50C
:102370001B684FF4FA54B3FBF4F353435B1E02D2D1
:102380004FF0004010BD426B12F0450FF6D0120521
:10239000F4D4426B520703D504218163084610BD73
:1023A000426BD20702D00121816305E0C52282631E
:1023B0000269D2B28A4201D0012010BD0021FFF78C
:1023C000CCFD3149084201D1002010BD002802DABD
:1023D0004FF0007010BD410001D5402010BD8100BC
:1023E00001D5802010BDC10002D54FF4807010BD12
:1023F000010102D54FF4007010BD410102D54FF428
:10240000806010BDC10102D54FF4006010BD010213
:1024100002D54FF4805010BD410202D54FF4005058
:1024200010BD810202D54FF4804010BDC10202D51B
:102430004FF4004010BD410302D54FF4003010BDF1
:10244000810302D54FF4802010BDC10302D54FF4A3
:10245000002010BD010402D54FF4801010BD4104CE
:1024600002D54FF4001010BD810402D54FF4800056
:1024700010BD000702D54FF4000010BD4FF48030AE
:1024800010BD00001C00002008E0FFFD12494FF4C1
:10249000FA520968B1FBF2F141F288325143491E08
:1024A00002D24FF000407047426B12F0450FF6D059
:1024B0001205F4D4416B490703D504218163084612
:1024C0007047416BC90703D00121816308467047FB
:1024D000C5218163002070471C0000200F494FF484
:1024E000FA520968B1FBF2F141F288325143491EB8
:1024F00002D24FF000407047426B12F0450FF6D009
:102500001205F4D4416B490703D5042181630846C1
:102510007047C52181630020704700001C00002027
:1025200030B5204B4FF4FA541B68B3FBF4F341F27F
:10253000883463435B1E02D24FF0004030BD446BD1
:1025400014F0450FF6D02405F4D4436B5B0703D594
:1025500004218163084630BD436BDB0702D00121B3
:10256000816303E00369DBB28B4201D0012030BDFF
:10257000C52181630021FFF7F0FC10F4604F04D007
:10258000410406D54FF4005030BD000C10800020EF
:1025900030BD000402D54FF4805030BD4FF4803080
:1025A00030BD00001C0000202DE9F04788B00D462A
:1025B0000446FEF73FFA002682460096019637460B
:1025C00008212068FFF732FD002829D1B4F8500017
:1025D00001042068FFF7F6FC002821D1401E4FF0CF
:1025E0000808CDE9020830204FF00209CDE90409BE
:1025F0000120CDE9067002A92068FFF798FC206849
:10260000FFF71FFE00280BD16F462068416B11F0C9
:102610002A0F08D0416B09071AD5C0F83880082066
:1026200008B0BDE8F087416B890205D5FFF7B2FC21
:1026300047F82600761C02E0416B8904EAD5FEF7D4
:10264000F9F9A0EB0A00401CDFD14FF00040E7E7AA
:10265000416B890703D5C0F838900220E0E7416B51
:10266000890603D5202181630846D9E740F23A5113
:102670008163019800BA2860009800BA6860002061
:10268000CEE710B590B004460120ADF838002068C0
:10269000FFF75FFC002854D0606C032842D020680C
:1026A000FFF7A3FD00284AD100212068FFF755FC61
:1026B000606704212068FFF750FCA06708212068AC
:1026C000FFF74BFCE0670C212068FFF746FCC4F8DD
:1026D0008000606C032825D00EA92068FFF7E2FD7A
:1026E00000282CD1606C03281CD0BDF83800206570
:1026F00001042068FFF78FFD002820D10021206809
:10270000FFF72BFC606604212068FFF726FCA0661B
:1027100008212068FFF721FCE0660C212068FFF704
:102720001CFC206704212068FFF717FC000DE06403
:1027300003A92046FEF7F6FC30B14FF0805010B0F0
:1027400010BD4FF08060FAE7B4F850000023020497
:102750002068FFF731FD0028F1D104F1100007C80F
:102760008DE8070094E80F00FFF7FAFB0020E6E78A
:102770002DE9F84F0026044600963546B04600681D
:10278000FFF786FC002827D12068FFF7A9FC4FF04F
:10279000805B4FF001094FF6FF7748B1A6642068CF
:1027A000FFF776FC002817D1A06C012802D020E0AA
:1027B000C4F8489000212068FFF704FC58B918E0DD
:1027C00000212068FFF7FEFB002805D15146206854
:1027D000FFF712FC10B15846BDE8F88F00212068C1
:1027E000FFF7BBFB05464FEAD0780098401C0090ED
:1027F00002E0DFF82CA00098B84202D2B8F1000F36
:10280000DED00098B84202D34FF08070E4E7680051
:1028100002D5C4F8449000E066640020DCE70000C4
:10282000000010C110B5064C01202070FDF7D8FE45
:1028300018B9207820F001002070207810BD000029
:102840002800002010B5124888B014460078C00750
:1028500002D0032008B010BDB9B1012905D002296A
:1028600008D003290CD00420F4E76846FDF7A6FE43
:10287000069809E06846FDF7A1FE0798208004E06D
:102880006846FDF79BFE079820600020E2E7000005
:10289000280000202DE9F0411E4617460846012574
:1028A000094C0A4B32463946FDF7BAFE28B109E019
:1028B000641E02D20120BDE8F081FDF785FE0028EC
:1028C000F6D100252846F6E7A086010000E1F505CF
:1028D00010B5064C01202070FDF776FE18B920785F
:1028E00020F001002070207810BD0000280000209A
:1028F0002DE9F0411E46174608460125094C0A4BB2
:1029000032463946FDF79CFE28B109E0641E02D22A
:102910000120BDE8F081FDF757FE0028F6D1002523
:102920002846F6E7A086010000E1F5057047FEF7AE
:1029300087B830B58FB028216846FDF74DFD1421CA
:102940000AA8FDF749FD01210804CDE90010002483
:10295000029402250491CDE907504FF4E01009904C
:102960006846FEF7C3F908B172B6FEE70F20CDE95D
:102970000A054FF48060CDE90C4002210AA80E94AC
:10298000FEF7E8F8002801D072B6FEE70FB030BDC0
:1029900070470000F0B502681C4B1D4D1D4E1E4FC8
:1029A0001E4C4FF0804C984209D0A04207D06045A1
:1029B00005D0A84203D0B04201D0B84204D122F0E1
:1029C000700E4A6842EA0E02984209D0A04207D02F
:1029D000604505D0A84203D0B04201D0B84203D12F
:1029E00022F44075CA682A434D6922F080022A43C6
:1029F00002608A68C2620A688262984201D0A0427C
:102A000001D10969016301214161F0BD002C014040
:102A10000004004000080040000C00400034014069
:102A200010B501F01F030121046A99408C43046230
:102A3000016A9A401143016210BDFEE70907090EC1
:102A4000002804DB00F1E02080F80014704700F05B
:102A50000F0000F1E02080F8141D704710B5044607
:102A600000F5805000220271521EC262204601F021
:102A7000FFFC08B1032010BDB4F8FE01A0F52A4107
:102A8000553901D0022010BD94F83600B4F8371043
:102A900040EA01210848B0EB012F08D094F8521009
:102AA000B4F8532041EA0221B0EB012F01D10020FC
:102AB00010BD012010BD00000046415400E0401C44
:102AC00002780AB18A42FAD1D0B27047F0B500223A
:102AD000174B144600F5805002EB420653F826507F
:102AE0006DB10768BD420BD103EB860587686E6840
:102AF000BE4205D12D89C688B54204D000E001242C
:102B0000521C022AE8D3022A01D079B904E05CB948
:102B1000022909D01220F0BD02EB420003EB800035
:102B20004089B0F5807F01D00020F0BD1020F0BDBD
:102B30006434002030B50021064A0C4601EB410305
:102B400052F82350854201D142F82340491C022902
:102B5000F4D330BD6434002000F58050426A006830
:102B600000F58050438980784343B1FBF3F0121D98
:102B700002CA19B1884203D3401AF8E7002070470F
:102B800011680844704700F58050891E4269921E02
:102B90008A4201D800207047826A807801FB0020B9
:102BA00070472DE9F04180460F0000F5805407D0B2
:102BB000404601F07DFA022809D20120BDE8F081EB
:102BC000E66816B16069B04207D8012605E0411CED
:102BD000F4D061698142F1D83E46354660696D1C8A
:102BE000A84202D80225022E0AD32946404601F007
:102BF0005FFA38B1411CE1D00128DFD0B542EDD1F8
:102C00000020DBE76FF070422946404601F04CFCA3
:102C100030B957B12A463946404601F045FC20B14B
:102C200001280DD001252846C8E7E5602069411C30
:102C3000F9D0401E2061607940F001006071F2E738
:102C40004FF0FF35EFE700002DE9F84F88460D689B
:102C500000E06D1C29782F29FBD05C29F9D000F504
:102C6000805A0024DAF820702646A85D761C2028B9
:102C700017D32F2815D05C2813D0802C31D20121F6
:102C800001F028F85FEA00092BD0B9F1800F04D2D7
:102C9000014668A0FFF712FF18BB27F81490641CC8
:102CA000E3E7AA19C8F80020202801D2042516E07D
:102CB000002514E007EB440030F8020C20280DD06A
:102CC0002E280BD06CB1002027F814000B222021F5
:102CD000DAF8180001F0C5FB002606E0641E002C9F
:102CE000E8D10620BDE8F88F761C37F816002028BA
:102CF000FAD02E28F8D01EB145F0030500E0641E7E
:102D00002CB107EB440030F8020C2E28F7D100203C
:102D100081464FF0080B009037F8160006F10106C7
:102D20005FEA000824D0B8F1200F04D0B8F12E0FCC
:102D300004D1A64202D045F00305EDE700985845BE
:102D400001D2A6421AD1BBF10B0F0FD0A64201D07F
:102D500045F003050CD84FF0080000904FEA896059
:102D600026464FF00B0B4FEA1069D5E745F00305F7
:102D7000DAF818000178E52938D039E04046B8F192
:102D8000800F10D3002100F0A5FF5FEA000805D0F6
:102D90002B4901EB080010F8800C804645F0020535
:102DA000B8F1000F04D0014626A0FFF787FE20B13E
:102DB0004FF05F0845F003050FE0A8F14100192826
:102DC00002D849F0020908E0A8F16100192804D8E6
:102DD000413049F001091FFA80F8DAF8182000990B
:102DE00002F801800098401C009095E705210170D1
:102DF000BBF1080F03D14FEA89604FEA1069C9F3AC
:102E00008100032803D06FEA0901890701D145F049
:102E10000205A90709D409F00301012901D145F0F0
:102E20001005012801D145F00805DAF81800C5722F
:102E3000002057E7222A3A3C3E3F7C7F00000000FA
:102E4000905000082B2C3B3D5B5D0000401E02288B
:102E500015D20C4B00EB400203EB82014889B0F520
:102E6000807F05D008B1401E80B2488110B104E0D7
:102E70000020FAE7002043F82200002070470220DB
:102E800070470000643400202DE9F14F82B000212A
:102E9000029800F087FA00287AD1029DFF2005F5FC
:102EA00080554FF6FF7A00908146A5F824A0296945
:102EB000286801F0DDFA06000DD16C69207848B170
:102EC000E17AE52801F03F016DD00A0704D50F290A
:102ED00069D107E0042671E00F2903D0B9F1000F92
:102EE0004AD04FE0296A89B3420606D5627B009238
:102EF00020F04000EA888146AA84484535D1627BAB
:102F00000098824231D101912078A04620F0400003
:102F1000401E00EB80010027DFF8A8B001EBC006DF
:102F2000012400BF1BF8071001EB0800008874B1F2
:102F300000F0ECFE0446802E17D2019830F81600FF
:102F4000761C00F0E3FEA0420FD102E02FE05045D6
:102F50000BD17F1C0D2FE5D398F80000400608D553
:102F60003CB1019830F8160018B1FF2000F0FF09BD
:102F70001DE0A9F10100F9E7204601F0C5FB009929
:102F800088421BD0A869C17AC9070CD10A2102E086
:102F900015E0491E06D314F8012B10F8013BD21A94
:102FA000F7D000E052B14FF0FF09A5F824A00021AE
:102FB000029800F009F806003FF479AF3046BDE80A
:102FC000FE8F0000105100082DE9F04100F58054FB
:102FD0000F46E688761C3004000C38D0216991B386
:102FE000206800F5805253895B09B6FBF3F503FBBB
:102FF0001563002B67D1491C2161E16821B3538916
:1030000092785B09B6FBF3F3521E13425BD101F0D9
:103010004FF8054601281FD9681C39D0206841F2B5
:1030200014010958A94248D86FB1E168FFF7B9FD0A
:1030300005000FD0012D0FD0681C29D0206801F0A9
:10304000C4FB28BB0AE002E01089B0423BD8042050
:10305000BDE8F0810720FBE70220F9E741F20A0111
:1030600020680A5A002101F0FCF929462068FFF780
:103070008AFD2168002701F580514FF00108C862E0
:103080000FE000BF80F80480206801F09EFB08B1CB
:103090000120DDE7206800F58050C16A491C7F1CD3
:1030A000C162206800F580508178B942EAD8216871
:1030B00001F58051C96AC91BC162E56029462068D3
:1030C000FFF761FD2061E68041F20A012068095A9C
:1030D0004909B6FBF1F201FB126100EB411060619E
:1030E0000020B5E72DE9F35FFF2483462746042639
:1030F0004FF6FF784FF0000900F5805567E028682B
:1031000001F0B6F9060066D16869017881B1C27A2A
:10311000E52902F03F0209D02E2907D022F0200332
:10312000082B07D0B446019B9C4506D0FF2440E005
:10313000042650E04FF0010CF5E70F2A01D0ACBB9C
:103140003EE04A0605D5477B21F04001EA880C465F
:10315000AA84A1422BD1417BB94228D10178DFF862
:1031600080A001F03F01491E01EB810202EBC10189
:103170000022D5F820C001261AF8023003441B882B
:1031800036B1802913D22CF811301E46491C01E0BB
:1031900043450CD1521C0D2AEED30078400603D5CE
:1031A000802904D22CF81190641E01E00CE0FF2469
:1031B000E4B200215846FFF707FF060007D00AE0F7
:1031C00001F0A2FAB84208D0A5F8248005E02969E8
:1031D000002994D10EB1C5F810903046BDE8FC9F8F
:1031E000105100082DE9F14F84B00C22049C684670
:1031F00004F58054A769266A394601F029F99DF83B
:103200000B00C00718D00020F872012520622B4661
:1032100032466946384600F00BFF0498FFF734FE4B
:1032200010B96D1C642DF2D3642D0BD004280AD183
:103230009DF80B00F87226629DF80B0080070FD5F1
:10324000002004E0072005B0BDE8F08F401C36F8F0
:1032500010100029FAD10D211930B0FBF1F600E071
:103260000126049D0021284600F09CF8A8B94FF0E3
:10327000000805F580573969386801F0F9F860B938
:1032800078690078E5280BD050B14FF00008012193
:103290002846FFF799FE0028EDD0042812D012E04E
:1032A00008F101083046B045F1D1461E5FEA060A32
:1032B00059D0E1880498A1EB0A0100F073F80500E9
:1032C00003D06BE00720054668E0A06901F01CFA16
:1032D00003902169206801F0CBF805005ED1616997
:1032E000D4F82090039848730F20C8720020087308
:1032F00088760AF0FF0BC876ABF1010000EB800284
:1033000002EBC00500234FF6FF7E254E4A1C01E06C
:10331000604503D039F81500F4466D1CF75CC855BC
:1033200016F80380070A08F8027000B960465B1CB3
:103330000D2BEDD3704502D039F8150008B94BF0CC
:10334000400B81F800B02168012001F5805108711F
:1033500000210498FFF738FE05001FD1AAF10100F3
:103360005FEA000AB5D12169206801F081F8050003
:1033700014D120220021606901F073F8D4E905011D
:103380000B2201F065F8A0696169C07A00F01800AD
:1033900008732168012001F580510871284652E721
:1033A0001051000870B500F580540D46E180A36807
:1033B000012B42D0206800F58050416999423CD9E8
:1033C00023B90178032906D1436A23B14189807862
:1033D0004E09464312E00189A9422ED9406A13E002
:1033E00000F066FE0346401C25D0022B25D3206842
:1033F00000F58050406998421FD9AD1B2068B54246
:103400001946EDD2FFF7BFFBE360B0B121680A4671
:1034100001F580514B895B09B5FBF3F3184420613A
:1034200048894009B5FBF0F100FB115002EB401058
:103430006061002070BD012070BD022070BD0000E1
:10344000084910B50B5C002253B901220A540A182E
:1034500001EB8000127A40680168104688470246F6
:10346000104610BD7C34002030B4054C231804EB0A
:1034700080001B7A406804691846A44630BC604747
:103480007C34002030B4054D2C1805EB8000247AE4
:10349000406885682046AC4630BC60477C340020DC
:1034A000044A111802EB8000097A40684268084615
:1034B000104700007C34002030B4054D2C1805EB7B
:1034C0008000247A4068C5682046AC4630BC60471E
:1034D0007C34002010B5044600F0AAFB00280DD172
:1034E000204601F09BF9002808D104F58054A06A19
:1034F000FFF7ACFC002801D10021216010BD2DE9AF
:10350000FC5F0D46834601F089F95FEA00096FD13F
:103510000BF58054E07900286AD1606A01274FF0EA
:10352000020A00287AD0691C32D0E068A84200D292
:103530000546A560002D5AD05846691EFFF70CFBC2
:103540006061226801461046FFF71DFB00287ED00F
:1035500023686D1E03F580535E899A78B5FBF6F1FA
:10356000521E11400D18A068B0FBF6F106FB1100C9
:103570000028E0D0A269AA42DDD0A07940063FD55C
:10358000587801235946FFF797FF00287AD133E096
:1035900002C8009121698346022501B30026AD1CB3
:1035A00001918846761C206800F082FD01460128C2
:1035B0004DD9481C66D008F101008142F1D0009835
:1035C000854206D8CBF800600BF10400019A04C0D4
:1035D0008346206800F5805040698842DED8606AE2
:1035E00005600098854204D80020CBF80000B7E0C1
:1035F00098E04FF01109B3E0A07920F04000A071ED
:103600002068012300F580502A4640785946FFF78C
:1036100039FF002836D1A561A2E0FFE7E068A842A3
:1036200003D2A179890700D405464FF00008A068AD
:10363000C4F808802DB321680A4601F580518E78C0
:1036400049894E4378B1691EB1FBF6F100E066E0AE
:10365000401EB0FBF6F3994205D3711E8843A0606B
:103660002D1A61690CE0216949B900211046FFF764
:1036700098FA0146012852D0481C63D0216161614B
:10368000E9B935E05EE0A0798007206805D5FFF74D
:1036900088FA010004D1354613E000F009FD014627
:1036A000481C4FD001293AD9206800F58050406964
:1036B000884234D96161A068AD1B3044A060B54236
:1036C000E1D8A06841F20A022844A0602068125A9A
:1036D000B5FBF2F302FB135252B1FFF754FAF0B10B
:1036E000216801F580514989B5FBF1F101EB000832
:1036F0002068A16800F580504289B1FBF2F302FB1B
:10370000131121B3A269424521D0A17949060FD5F1
:10371000407801235946FFF7CFFE98B904E084F8BA
:1037200007A00220BDE8FC9FA07920F04000A07116
:103730002068012300F58050424640785946FFF743
:10374000A1FE10B1E7710120ECE7C4F81880D4E9BC
:103750000201884204D9E060A07940F02000A07105
:103760004846DFE72DE9F74181B090460298009086
:10377000684600F071FD040003D50B2004B0BDE8DD
:10378000F081104E002756F824502DB12846FFF73F
:10379000D1F905F580552F700198002803D000BF9E
:1037A0004FF480510F5446F8240002D0B8F1010FB5
:1037B00001D00020E2E7002202A901A800F0CCFA23
:1037C000DCE70000240000202DE9F74FADF58A5D0D
:1037D00098B100F580564FF0000802F01F0741F243
:1037E000441127F0010269440DF58050C6F80080AD
:1037F00000F0B2FA040006D0D9E0092053B00DF56C
:10380000805DBDE8F08F41F230110DF580506944C4
:10381000816100F12C010162EB46D0F84411584659
:1038200000F0D0FB04000DF5805045690BD11DB1AF
:10383000780803D0012102E0062404E00021584664
:10384000FFF744F9044617F01C0F74D04FF0010A3B
:10385000E4B1042C13D10020574902E0401C022897
:1038600005D200EB400251F82220002AF6D10228AE
:1038700003D05846FFF7B6FC00E0122004460DF5D1
:10388000805047F00807456954B190E0E87A10F09D
:10389000110F01D007248AE0780701D5082486E0BB
:1038A000380756D500F077FCA873010AE973010CBC
:1038B0002974000E687485F80B8085F81C8085F8E3
:1038C0001D8085F81E800DF5805085F81F800068EA
:1038D000294600F02BFD81460021284600F00CFF10
:1038E0000DF58050B9F1000F006800F5805080F8A8
:1038F00004A02CD00DF580504946006800F580509A
:10390000D0F82CA00DF58050006800F05CFE04009B
:103910004DD10DF58050A9F10101006800F58050EE
:10392000C1600DF580505146006800F0A1FD040013
:103930000BD03CE0FFE7D4BBE87AC10601D50424F4
:1039400035E0B90701D5C007A4D1380701D547F044
:1039500020070DF58050006800F58050C06AC6E968
:103960000705780801D0012100E00021584600F049
:1039700091FCB062E8B1B7710DF5805086F8078010
:1039800047460068294600F0D1FC3061287FD5F811
:103990001D1040EA0120C6E90270B7610DF58050A4
:1039A00077620068306000F58050C088B0802046A3
:1039B00024E70224FBE7000064340020F3B5C7B01D
:1039C00006000BD0002248A9684600F0C5F90500A2
:1039D0004FF0000706F5805403D032E0092049B0CB
:1039E000F0BD0098206044A8A06102A82062304683
:1039F000489900F0E7FA050013D1616931B1C87A3E
:103A0000C0061DD5009800F091FCA0600098002130
:103A100000F58050C088A0803046FFF7C3FC050049
:103A200002D0042D0CD00CE0A06838B10021304643
:103A300000F030FCE06128B9122502E0E76101E006
:103A4000052527602846CAE72DE9F04F884687B04C
:103A50000021994615468346196000F0DFFE0028D4
:103A600012D10BF58054E07900280DD1A079C00760
:103A700009D0D4E90201081A01274FF0020A854251
:103A800000D90546A2E0072007B0BDE8F08F206806
:103A9000A16800F580535E89B1FBF6F206FB1212B5
:103AA000002A73D1B1FBF6F29B785B1E1A4012F02C
:103AB000FF0610D129B1626A2AB15846FFF74CF8C7
:103AC00004E0206902E0616900F0F2FA02281FD3E5
:103AD000411C55D0606161692068FFF754F8B8B1A6
:103AE00030440090206800F580504189B5FBF1F129
:103AF000039151B3721881788A4201D9891B0391CD
:103B000040784146039B009AFFF7BCFCC0BB03E032
:103B100084F807A00220B7E7A07940060ED5A16976
:103B20000098081A0399884208D2216801F580514B
:103B30004A89594600FB028000F08AFC206800F5A3
:103B4000805046890398464336E0A26900998A422C
:103B50001AD0A179490609D5407801235946FFF7C3
:103B6000ABFC68B9A07920F04000A0712068012367
:103B700000F5805059464078009AFFF783FC18B151
:103B8000E771012080E701E00098A0612068A1684A
:103B900000F580504089B1FBF0F200FB1212861A4A
:103BA000AE4200D92E46B1FBF0F200FB121159448F
:103BB0003246404600F04CFCA068B0443044A0605F
:103BC000D9F800008119AD1BC9F80010002D7FF451
:103BD0005EAF002058E7F0B5C5B00F46054600F0CF
:103BE0001DFE00281BD1E7B105F5805441A8A06156
:103BF000C4F820D000212846FFF774FA00260428D4
:103C000014D000280BD13946284600F0C6FA00210E
:103C10002846FFF7D9F9042801D10020266145B0D4
:103C2000F0BD00212846FFF7BDFBF8E72661EAE773
:103C300070B5054600F0F2FD002811D105F580545D
:103C4000A1798A060CD548060FD52068012300F516
:103C5000805029464078A269FFF72EFC08B1012068
:103C600070BDA07920F04000A071E169206800F0EB
:103C7000FFFB0028F4D1256AE87A40F02000E872C2
:103C8000207B2877A089000A6877E068000CA87775
:103C9000E068000EE8772846216900F02DFD00F06D
:103CA0007AFAA875010AE975010C2976000E687682
:103CB0000020A874E874A079012120F02000A071F0
:103CC000206800F5805001712068BDE8704000F068
:103CD00028BD0000802804D30B4A51B1FF2801D928
:103CE0000020704702EB4000A0F58050B0F8000FB4
:103CF000704732F81130834203D0491C89B28029C1
:103D0000F7D38031C8B270474A5100080021064BF2
:103D100000E0491C33F81120002A04D08242F8D177
:103D2000024830F8110070474A5200082A5400082F
:103D300010B50024224604E03CB18B54521CD2B290
:103D4000401C0378002BF7D110BD2E2BF8D18B54DB
:103D5000521CD2B20124F3E72DE9FF5F4FF0000BB4
:103D60000546C0F800B01746084600F075FA060090
:103D700003D50B2004B0BDE8F09F8F4850F82640D3
:103D80009CB12C6004F58055287820B16878FFF745
:103D900087FBC1070BD085F800B0F0B26870FFF761
:103DA0004FFBC10708D00320E4E70C20E2E70FB186
:103DB000400704D40020DDE71FB1400701D50A20E9
:103DC000D8E741F20A01621868780221FFF74CFB3C
:103DD00078BB6889B0F5007F34D3B0F5805F31D807
:103DE000002631462046FEF739FE012826D1002064
:103DF0004FEA0D0204EB001191F8C23101F5DF71B9
:103E00002BB10B7AD1F8091043EA012100E000211F
:103E100042F82010401C0428ECD300274FEA020887
:103E200058F8276036B131462046FEF717FE10B924
:103E30000AE007E002207F1C042FF1D3032801D001
:103E4000F0BB01E0012095E7B4F80B00B5F80AC01B
:103E500060455FD1E18A29B994F82400D4F825108F
:103E600040EA0121A961207C8A46E870012801D03E
:103E700002284FD100FB01F9607BA87000B3411EFE
:103E8000084247D1B4F811104FEA5C12B1FBF2F3CB
:103E900002FB131329819BB9B4F813702FB994F85E
:103EA0002030D4F8217043EA0727E38943B1B1FBFE
:103EB000F2F803EB0902424497422BD3BF1A00E009
:103EC00028E0B7FBF0F028B3012740F6F67840452C
:103ED00000D302274FF6F678404500D30327801C15
:103EE0003244AA6233446861C5E90763032F13D0E3
:103EF00081B103EB09016962022F18D000F00101C2
:103F000000EB400001EB5000401E6044B0FBFCF1B0
:103F100051450ED90D202DE70029FBD194F82C1026
:103F2000D4F82D20800041EA02216962ECE74000CC
:103F3000EAE74FF0FF302861E86080206871032FC6
:103F40002ED1208E01282BD12046711C00F090FA32
:103F500030BB85F805B0B4F8FE01A0F52A4155390B
:103F60001ED12078D4F8011040EA0120134988427C
:103F700016D194F8E401D4F8E51140EA0120104983
:103F800088420DD194F8E801D4F8E91140EA012003
:103F9000286194F8EC01D4F8ED1140EA0120E860C2
:103FA00005492F70091F0888401C0880E8802046BA
:103FB000FEF7C0FDFEE600002400002052526141E1
:103FC0007272416173B50546019801782F2901D0BD
:103FD0005C2901D1401C019005F580540026A660A3
:103FE00001980078202805D200212846FFF7DAF949
:103FF00066617CBD01A92846FEF726FE0028F8D19F
:104000002846FEF741FFA169C97A28B10428F0D1FA
:104010004907EED405207CBD4907FCD46169C87A04
:10402000C006F7D5206800F081F9A060E2E7000043
:104030007CB516461C4605460B2200F009FA052CF5
:1040400011D91A4A0CE00021B61C2346044663F33A
:104050005F044008E30300D55440491C1029F4D301
:1040600030880028EFD107214FEA0D0204F00F003D
:104070003030392800D9C01D5054491E2409F5D1CB
:104080007E205054002000E0401C884202D22B5C6D
:10409000202BF9D1082902D2535C491C00E02023CF
:1040A0002B54401C0828F5D37CBD000021100100D2
:1040B0002DE9F0470D46074602290DD307F5805438
:1040C0006069A84208D920784FF0FF36012807D050
:1040D000022832D0032844D001263046BDE8F087BC
:1040E000618905EB5508B8FBF1F0216A01443846B7
:1040F00000F0BEF90028F0D16189B8FBF1F201FBB4
:10410000128008F1010817F80090B8FBF1F0216A5D
:104110000144384600F0ACF90028DED16189B8FBD3
:10412000F1F201FB1280395C49EA0120E90701D074
:104130000609D2E7C0F30B06CFE76089216A400881
:10414000B5FBF0F00144384600F092F90028C4D1E4
:1041500061896800B0FBF1F201FB12003844068867
:10416000BBE76089216A8008B5FBF0F0014438465E
:1041700000F07EF90028B0D16189A800B0FBF1F20F
:1041800001FB120038440178D0F8010041EA002018
:1041900020F07046A1E7002070472DE9F04100F5BE
:1041A00080500C4601F10902016971B30025436991
:1041B0002E26595D6D1C202919D0052900D1E52135
:1041C000092D01D102F8016BA1F14107192F0CD87B
:1041D0001F7B092D02D34FF0100C01E04FF0080CAB
:1041E00017EA0C0F01D02031C9B202F8011B0B2DC8
:1041F000DFD3D97A2172197FD3F81D5041EA052106
:104200002160198BA180D98AE1804FF0000882F8E3
:104210000080A669002E1DD001690025C1B1E169A9
:10422000B1B1818CA1F57F42FF3A11D0076A0BE052
:104230000021FFF74FFD18B1E169491EA94201D8DD
:10424000002505E070556D1C37F8020B0028EFD1F2
:1042500006F80580BDE8F08110B504464FF0FF3048
:104260002268002A13D0114600E0491C0B78202B4D
:104270000ED33A2BF9D112F8013B303B0A2B06D270
:104280008A4204D1002B02D1491C1846216010BD7E
:10429000002010BDF0B500F5805323481C680022B3
:1042A00002EB420550F82560A64209D100EB8505D6
:1042B0009F686E68BE4203D12D89DE88B54202D068
:1042C000521C022AECD3022A18D1002202E0521C0E
:1042D000022A05D202EB420550F82550002DF6D1F6
:1042E000022A13D002EB420540F8254000EB85047A
:1042F0009E686660DB88238100236381002902EBCE
:10430000420100EB8101498902D019B10020F0BDC2
:10431000491C01E04FF4807102EB420300EB830083
:104320004181501CF0BD000064340020024602F5BB
:104330008052488B1278032A02D1898A40EA0140D0
:1043400070470000ADF5125DFCF782FBFEF7F1FA55
:10435000FDF744FD2A482949016000214160816040
:10436000C16001614FF48041416104218161FDF729
:10437000EBFCFDF7F7FCFDF7A1FDFDF7DBFB2048AB
:104380003C218430FDF71EFB01221E490DF58060A3
:10439000FFF7E8F905466C464FF480612046FCF7CC
:1043A0001BF8DDB1002220211748FCF73DFB00215E
:1043B00016A20846FDF790FB114D84352868406A27
:1043C0004FF496762868426A12A12046FBF726FF32
:1043D000224631460020FDF77FFBF3E714A000F0F2
:1043E00025F916A000F030FA41F230406844FFF79A
:1043F00071F84FF47A70FCF7D5F9DDE700800140E1
:104400002C33002001000020000C0140474757508A
:1044100000000000656E636F6465722076616C75E4
:10442000653A256420202020202020202020000024
:10443000303A2F4D555349430000000053616D70D1
:104440006C652D7761762D66696C652E77617600D7
:1044500004E000BF11F8013B00F8013B521EF9D205
:104460007047C9B201E000F8011B521EFBD2704731
:104470002DE9F04100F580540746E06A0E4600251C
:10448000B0420ED0384600F0A0F9050009D160789E
:10449000012332463946FEF7F5FF08B16E1E0125AD
:1044A000E6622846BDE8F0812DE9F04717460D4643
:1044B0000646022904D306F580546069A84202D852
:1044C0000220BDE8F087217807F0FF094FF0010ACC
:1044D000012924D002295DD00329F1D16089216A04
:1044E0008008B5FBF0F001443046FFF7C1FF00281B
:1044F000E7D16289A900B1FBF2F302FB13118A191B
:104500004FF07043D2F8011003EA012139431170D2
:104510000B0A53700B0C9370090ED17050E0618937
:1045200005EB5508B8FBF1F0216A01443046FFF76E
:104530009FFF0028C5D16189B8FBF1F201FB128011
:10454000304408F10108E90703D0017869F31F112D
:1045500000E03946017084F804A06189B8FBF1F0ED
:10456000216A01443046FFF783FF0028A9D1628900
:10457000B8FBF2F302FB13813144EA0702D0C7F320
:10458000071205E00A78C7F3032302F0F0021A438A
:104590000A7015E06089216A4008B5FBF0F001441B
:1045A0003046FFF765FF00288BD162896900B1FBB7
:1045B000F2F302FB131131443A0A81F800904A7079
:1045C00084F804A07DE72DE9F0410F4680460229DA
:1045D00018D308F580556869B84213D900261FE042
:1045E00039464046FFF764FD04001CD0012C09D079
:1045F000601C09D0002239464046FFF755FF0600EF
:1046000011D103E002260EE001260CE02869411CCE
:1046100005D0401C2861687940F001006871274688
:104620006869B842DCD83046BDE8F0812DE9F04732
:10463000ADF58C5D7F21079126490691014608AEB4
:104640003046FFF7BBF9002840D141F24C056D44DC
:104650004FF480712846FBF7BFFE00246F463946B1
:104660003046FFF7B8FA069909782E29F7D09DF859
:10467000091000292AD0002828D11748069900EBF4
:10468000C4108046FBF778FE424614A12846FBF78B
:10469000C5FD04EB84094FF6FF7101EA89012A4642
:1046A0000020FDF719FA40463146FFF741FB32463C
:1046B0000DA12846FBF7B2FD3C2101EB890081B238
:1046C0002A460020FDF708FA641CC8E70DF58C5D4A
:1046D000BDE8F0872C3200202C0000206E616D6553
:1046E0003A2025730000000066696C6520747970BB
:1046F000653A20257300000081760A0AC2760A0C0A
:104700000275090E41757047014600200B224308CF
:1047100003EBC01011F8013B521E1844C0B2F6D191
:10472000704770B5044600F050F806004BD104F510
:104730008055287803283FD1687901283CD16A89BF
:1047400000212046FFF78DFE552084F8FE01AA20A7
:1047500084F8FF015220207060706120A070412118
:10476000E170722284F8E42184F8E52184F8E611EE
:1047700084F8E701286984F8E801010A84F8E9115E
:10478000010C84F8EA11000E84F8EB01E86884F863
:10479000EC01010A84F8ED11010C84F8EE11000E11
:1047A00084F8EF01EA690123521CEA626878214625
:1047B000FEF782FE00206871002268781146FEF73D
:1047C00053FE00B10126304670BD2DE9F04100F5E1
:1047D0008054804620790027E8B1E56A607801239B
:1047E0002A464146FEF768FE08B1012713E0002083
:1047F0002071206AA169281A88420CD2E67808E064
:10480000A0690123054460782A464146FEF754FE1C
:10481000761E022EF4D23846BDE8F08110B580B184
:1048200000F58050016861B101F580510A7842B10C
:10483000CA888088824204D14878FEF731FEC007DA
:1048400000D0092010BD00002DE9F041ADF5AE5DAE
:1048500041F22C5406466C448C212046FBF7BCFDEB
:10486000A4F580654FF480612846FBF7B5FD4BA1A8
:104870002046FBF7A5FD31462046FBF7A1FD6E461D
:104880004FF480713046FBF7A7FD40AF012221466F
:104890003846FEF799FF04213846FEF730FE04F152
:1048A0008C084346042231463846FFF7CDF89DF880
:1048B000031000983C4C61F31F6020600DF58050A0
:1048C000D0F8081138460831FEF719FE4346042295
:1048D00031463846FFF7B8F89DF80300009A434682
:1048E00060F31F62314638466260FFF7ADF89DF80D
:1048F000002022729DF8020060729DF80710019856
:1049000061F31F60E0609DF80B10029861F31F6077
:104910002061BDF80C00A082BDF80E00E08223A14A
:104920002846FBF77BFC2A4682210020FDF7D4F8BD
:10493000627A22A12846FBF771FC2A4696210020C4
:10494000FDF7CAF821A12846E268FBF767FC2A4672
:10495000AA210020FDF7C0F820A128462269FBF714
:104960005DFC2A46BE210020FDF7B6F8A28A1FA1F1
:104970002846FBF753FC2A46D2210020FDF7ACF86D
:10498000E28A1EA12846FBF749FC2A46E6210020C0
:10499000FDF7A2F80DF5AE5DBDE8F081303A2F4D80
:1049A000555349432F00000040340020636F646575
:1049B000635F666D743A202564000000736F756E46
:1049C000645F63683A2025640000000073616D70C5
:1049D0006C655F726174653A202564006279746564
:1049E0005F726174653A202564000000626C6F6339
:1049F0006B5F616C69676E3A202564006269745F61
:104A00007065725F73616D706C653A20256400009B
:104A10000000000000000000000000000000000096
:104A2000000000183C3C3C1818001818000000005A
:104A30000000006666660000000000000000000044
:104A40000000006C6CFE6C6C6CFE6C6C0000000076
:104A50000018183C66060C183060663C18180000F8
:104A600000000E1B5B6E30180C76DAD87000000068
:104A70000000001C36361C06F66666DC00000000EE
:104A800000000018181800000000000000000000DE
:104A90000000003018180C0C0C0C0C18183000001A
:104AA0000000000C1818303030303018180C00009E
:104AB00000000000006C38FE386C000000000000B0
:104AC000000000000018187E181800000000000008
:104AD000000000000000000000003838301800001E
:104AE000000000000000007E000000000000000048
:104AF0000000000000000000000038380000000046
:104B00000000006060303018180C0C060600000031
:104B100000000078CCECECCCDCDCCC7800000000B1
:104B200000000030383E30303030303000000000BF
:104B30000000003C66666030180C067E0000000035
:104B40000000003C666660386066663C000000005D
:104B50000000000C0C6C6C6C66FE606000000000D5
:104B60000000007E0606063E6060301E0000000069
:104B700000000038180C3E666666663C00000000C7
:104B80000000007E60303018180C0C0C0000000093
:104B90000000003C66666E3C7666663C00000000E5
:104BA0000000003C666666667C30181C0000000051
:104BB0000000000000383800000038380000000015
:104BC00000000000003838000000383830180000BD
:104BD0000000006030180C060C1830600000000067
:104BE0000000000000007E007E00000000000000C9
:104BF000000000060C18306030180C0600000000A1
:104C00000000003C6666301818001818000000000C
:104C10000000007EC3C3F3DBDBF303FE00000000F3
:104C2000000000183C6666667E666666000000004E
:104C30000000003E6666663E6666663E0000000056
:104C40000000003C666606060666663C0000000042
:104C50000000001E366666666666361E00000000AE
:104C60000000007E0606063E0606067E00000000E6
:104C70000000007E0606063E06060606000000004E
:104C80000000003C666606067666667C0000000052
:104C9000000000666666667E666666660000000066
:104CA0000000003C181818181818183C00000000E4
:104CB00000000060606060606066663C00000000AC
:104CC000000000666636361E363666660000000056
:104CD00000000006060606060606067E0000000026
:104CE000000000C6C6EED6D6D6C6C6C60000000076
:104CF000000000C6C6CEDEF6E6C6C6C6000000004E
:104D00000000003C666666666666663C0000000061
:104D10000000003E6666663E0606060600000000CD
:104D20000000003C666666666666663C30600000B1
:104D30000000003E6666663E36666666000000005D
:104D40000000003C66060C183060663C0000000065
:104D50000000007E18181818181818180000000015
:104D600000000066666666666666663C00000000D7
:104D7000000000666666666666663C180000000015
:104D8000000000C6C6C6D6D6D66C6C6C000000000B
:104D900000000066662C1818346666660000000085
:104DA000000000666666663C1818181800000000CF
:104DB0000000007E606030180C06067E00000000D7
:104DC0000000003C0C0C0C0C0C0C0C0C0C0C3C00F3
:104DD00000000006060C0C1818303060600000005F
:104DE0000000003C303030303030303030303C006B
:104DF00000183C66000000000000000000000000F9
:104E00000000000000000000000000000000FF00A3
:104E1000001C18300000000000000000000000002E
:104E200000000000003C60607C66667C00000000C2
:104E300000000006063E66666666663E00000000EC
:104E400000000000003C66060606663C000000000C
:104E500000000060607C66666666667C000000009C
:104E600000000000003C66667E06063C0000000074
:104E7000000000780C0C0C7E0C0C0C0C00000000E8
:104E800000000000007C66666666667C60603E002E
:104E900000000006063E6666666666660000000064
:104EA00000001818001E18181818187E00000000BE
:104EB00000003030003C30303030303030301E00B8
:104EC00000000006066666361E36666600000000B4
:104ED0000000001E181818181818187E000000008E
:104EE00000000000007ED6D6D6D6D6C60000000050
:104EF00000000000003E6666666666660000000010
:104F000000000000003C66666666663C000000002B
:104F100000000000003E66666666663E0606060005
:104F200000000000007C66666666667C606060006B
:104F3000000000000066760E06060606000000006F
:104F400000000000007C06063C60603E000000009F
:104F50000000000C0C7E0C0C0C0C0C780000000007
:104F600000000000006666666666667C0000000061
:104F7000000000000066666666663C1800000000DF
:104F80000000000000C6D6D6D6D66C6C000000002B
:104F9000000000000066663C183C666600000000E9
:104FA00000000000006666666666663C30180F000A
:104FB00000000000007E6030180C067E000000003B
:104FC000000000301818180C060C181818300000D3
:104FD00000000018181818181818181818181800B1
:104FE0000000000C1818183060301818180C000059
:104FF0000000008EDB7100000000000000000000D7
:10500000000001E0000001E0000001E0000001E01C
:105010000FFF3FFF0FFF3C0F0FFF38070FFF30035D
:105020000FFF37FB00F007F800F007F800F0000072
:1050300000F0000000F007F80FFF07F80FFF061858
:105040000FFF06180FFF07F80FFF07F80FFF07F80D
:1050500000F007F800F0061800F0061800F007F856
:1050600000F007F80FFF00000FFF00000FFF3FFFE9
:105070000FFF3FFF0FFF3FFF000000000000000098
:1050800000000000000000000102030406070809F8
:10509000809A90B68EB78F80D2D3D4D8D7DE8E8F39
:1050A000909292E299E3EAEB59999A9D9C9D9E9F7A
:1050B000B5D6E0E9A5A5A6A7A8A9AAABAC21AEAF35
:1050C000B0B1B2B3B4B5B6B7B8B9BABBBCBDBEBF68
:1050D000C0C1C2C3C4C5C7C7C8C9CACBCCCDCECF57
:1050E000D0D1D2D3D4D5D6D7D8D9DADBDCDDDEDF48
:1050F000E0E1E2E3E5E5E6E7E7E9EAEBEDEDEEEF37
:10510000F0F1F2F3F4F5F6F7F8F9FAFBFCFDFEFF27
:1051100001030507090E10121416181C1E000004C6
:105120000002000180004000200010000800040080
:105130000200000000800040002000100008004035
:1051400000200010000800040002C700FC00E90075
:10515000E200E400E000E500E700EA00EB00E80020
:10516000EF00EE00EC00C400C500C900E600C60078
:10517000F400F600F200FB00F900FF00D600DC00AE
:10518000F800A300D800D7009201E100ED00F30081
:10519000FA00F100D100AA00BA00BF00AE00AC00D6
:1051A000BD00BC00A100AB00BB009125922593255A
:1051B00002252425C100C200C000A9006325512595
:1051C00057255D25A200A5001025142534252C2582
:1051D0001C2500253C25E300C3005A2554256925DC
:1051E0006625602550256C25A400F000D000CA007B
:1051F000CB00C8003101CD00CE00CF0018250C2512
:1052000088258425A600CC008025D300DF00D400AB
:10521000D200F500D500B500FE00DE00DA00DB00AC
:10522000D900FD00DD00AF00B400AD00B1001720D3
:10523000BE00B600A700F700B800B000A800B70095
:10524000B900B300B200A025A000610062006300B5
:105250006400650066006700680069006A006B0012
:105260006C006D006E006F007000710072007300C2
:105270007400750076007700780079007A00A1004C
:10528000A200A300A500AC00AF00E000E100E20036
:10529000E300E400E500E600E700E800E900EA00DA
:1052A000EB00EC00ED00EE00EF00F000F100F2008A
:1052B000F300F400F500F600F800F900FA00FB0036
:1052C000FC00FD00FE00FF000101030105010701D4
:1052D00009010B010D010F01110113011501170146
:1052E00019011B011D011F012101230125012701B6
:1052F00029012B012D012F01310133013501370126
:105300003A013C013E01400142014401460148018D
:105310004B014D014F0151015301550157015901F5
:105320005B015D015F016101630165016701690165
:105330006B016D016F0171017301750177017A01D4
:105340007C017E019201B103B203B303B403B50340
:10535000B603B703B803B903BA03BB03BC03BD0369
:10536000BE03BF03C003C103C303C403C503C60315
:10537000C703C803C903CA03300431043204330429
:105380003404350436043704380439043A043B0441
:105390003C043D043E043F044004410442044304F1
:1053A0004404450446044704480449044A044B04A1
:1053B0004C044D044E044F0451045204530454044D
:1053C000550456045704580459045A045B045C04F9
:1053D0005E045F0470217121722173217421752193
:1053E00076217721782179217A217B217C217D21E9
:1053F0007E217F2141FF42FF43FF44FF45FF46FFDF
:1054000047FF48FF49FF4AFF4BFF4CFF4DFF4EFF50
:105410004FFF50FF51FF52FF53FF54FF55FF56FF00
:1054200057FF58FF59FF5AFF000041004200430058
:105430004400450046004700480049004A004B0030
:105440004C004D004E004F005000510052005300E0
:105450005400550056005700580059005A002100CA
:10546000E0FFE1FFE5FFE2FFE3FFC000C100C20093
:10547000C300C400C500C600C700C800C900CA00F8
:10548000CB00CC00CD00CE00CF00D000D100D200A8
:10549000D300D400D500D600D800D900DA00DB0054
:1054A000DC00DD00DE0078010001020104010601DC
:1054B00008010A010C010E0110011201140116016C
:1054C00018011A011C011E012001220124012601DC
:1054D00028012A012C012E0130013201340136014C
:1054E00039013B013D013F014101430145014701B4
:1054F0004A014C014E01500152015401560158011C
:105500005A015C015E01600162016401660168018B
:105510006A016C016E0170017201740176017901FA
:105520007B017D0191019103920393039403950301
:1055300096039703980399039A039B039C039D0387
:105540009E039F03A003A103A303A403A503A60333
:10555000A703A803A903AA03100411041204130447
:105560001404150416041704180419041A041B045F
:105570001C041D041E041F0420042104220423040F
:105580002404250426042704280429042A042B04BF
:105590002C042D042E042F0401040204030404042B
:1055A000050406040704080409040A040B040C0497
:1055B0000E040F04602161216221632164216521B1
:1055C00066216721682169216A216B216C216D2187
:1055D0006E216F2121FF22FF23FF24FF25FF26FFDD
:1055E00027FF28FF29FF2AFF2BFF2CFF2DFF2EFF6F
:1055F0002FFF30FF31FF32FF33FF34FF35FF36FF1F
:1056000037FF38FF39FF3AFF000000002528000867
:10561000D128000895280008F1280008452800082E
:1056200040560008000000202C0000006C0100081B
:105630006C5600082C000020BC9400008801000873
:10564000000000000000000000000000000000005A
:105650000100000010000000000000000024F40021
:0C5660000000000000000000010000003D
:0400000508000131BD
:00000001FF
