:020000040800F2
:10000000C0950020DD0100086D2600089121000840
:10001000692600089D0700085F3500080000000001
:10002000000000000000000000000000353400085F
:10003000A1070008000000007126000837340008FE
:10004000F7010008F7010008F7010008F7010008B0
:10005000F7010008F7010008F7010008F7010008A0
:10006000F7010008F7010008F7010008F701000890
:10007000F7010008F7010008F7010008F701000880
:10008000F7010008F7010008F7010008F701000870
:10009000F7010008F7010008F7010008F701000860
:1000A000F7010008F7010008F7010008F701000850
:1000B000F7010008F7010008F7010008F701000840
:1000C000F7010008F7010008F7010008F701000830
:1000D000F7010008F7010008F7010008F701000820
:1000E000F7010008F7010008F7010008F701000810
:1000F000F7010008F7010008F7010008F701000800
:10010000F7010008F7010008F7010008F7010008EF
:10011000F7010008F7010008F7010008F7010008DF
:10012000F7010008F7010008F7010008F7010008CF
:1001300000F002F800F042F80AA090E8000C8244B7
:100140008344AAF10107DA4501D100F037F8AFF294
:10015000090EBAE80F0013F0010F18BFFB1A43F0A5
:10016000010318472464000044640000103A24BFCF
:1001700078C878C1FAD8520724BF30C830C144BF0C
:1001800004680C607047000000230024002500264E
:10019000103A28BF78C1FBD8520728BF30C148BFEA
:1001A0000B607047642900F0AB80732900F0318246
:1001B000002070471FB51FBD10B510BD00F055FAE7
:1001C0001146FFF7F7FF04F08FFE00F073FA03B457
:1001D000FFF7F2FF03BC00F077FA00000948804700
:1001E00009480047FEE7FEE7FEE7FEE7FEE7FEE719
:1001F000FEE7FEE7FEE7FEE704480549054A064B31
:10020000704700009D34000831010008C03500200F
:10021000C0950020C0550020C05500200FB41CB56B
:10022000074B06AA7B4469460090059800F0C7F981
:100230000020694600F0D6F91CBC5DF814FB0000F4
:10024000BD0300002DE9F0410E4604460020206267
:100250002046E168884730B3252805D0D4E901213C
:100260009047206A401CF2E7E16820460027884753
:10027000050018D0A5F14100192802D820354FF407
:1002800000673246294620462760FFF78BFF40B1C2
:10029000012804D0F61D26F007060836D8E7361DDB
:1002A000D6E72846DAE7206ABDE8F08170B50C464B
:1002B0000546012A05D02878800600D5EA69002382
:1002C00002E0012305E05B1C934202D2E05C0028BF
:1002D000F9D1A869E618C01AA861286A18442862EA
:1002E0002846AFF3008004E0D5E9012114F8010BA2
:1002F0009047B442F8D32846AFF3008070BD0000A9
:100300002DE9F0410646002410687529314616A5EE
:1003100010D0AFF30080002802DA404213A507E0B6
:1003200031688A0701D512A502E0490704D511A555
:10033000012401E0AFF3008000210A2206F1240726
:1003400009E0B0FBF2FCB0FBF2F302FB1C00303022
:1003500078541846491C0028F3D123462A463046D3
:10036000BDE8F04100F0CDB8000000002D00000015
:100370002B0000002000000040EA0103024630B5D7
:100380009B0710D14FF0013400E008C208C91D1BC3
:100390009D4315EAC41FF8D013F0FF0102F8011BBA
:1003A0000DD01B0AF8E711F8013B002B02F8013BC6
:1003B00005D011F8013B002B02F8013BF3D130BD11
:1003C000421E12F8013F002BFBD111F8013B002B1C
:1003D00002F8013BF9D170474FF0000200B5134617
:1003E00094469646203922BFA0E80C50A0E80C5055
:1003F000B1F12001BFF4F7AF090728BFA0E80C5006
:1004000048BF0CC05DF804EB890028BF40F8042BFE
:1004100008BF704748BF20F8022B11F0804F18BF6B
:1004200000F8012B704710B5044610F0030F08BF09
:1004300011F0030F40F015804FF0013E121FC0F283
:100440000E8051F8043BA3EB0E0C2CEA030C1CEAC3
:10045000CE1C08BF40F8043BF0D0A1F1040102F12A
:100460000402521E08DB11F8013B002B00F8013B8F
:10047000F7D1114600F0D1F8204610BD4FF0013CF5
:1004800050F8042B51F8043B9A4221D1A2EB0C0303
:10049000934313EACC1317D150F8042B51F8043BC3
:1004A0009A4215D1A2EB0C03934313EACC130BD160
:1004B00050F8042B51F8043B9A4209D1A2EB0C03EB
:1004C000934313EACC13DBD04FF00000704700BF1A
:1004D000D01A01BAB1FA81F101F0180122FA01F043
:1004E000CB40C1F12001DBB2C0B2C01A2CFA01F33B
:1004F000D11A914311EAC311E6D170477047704792
:1005000070472DE9F0470D4699469246044600F1A2
:1005100024080168880604D5E06921F010012160F3
:1005200000E00120A84201DD471B00E00027A1698F
:100530007A1902EB0900081AA0612078C00602D4DB
:100540002046AFF30080002608E0D4E901211AF824
:1005500006009047206A401C761C20624E45F4DB62
:100560002078C0060AD52046AFF3008006E0D4E923
:10057000012130209047206A401C2062381EA7F1DC
:100580000107F4DC07E0D4E9012118F805009047E1
:10059000206A401C2062281EA5F10105F3DC2046DC
:1005A000AFF300802078000602D50220BDE8F08776
:1005B0000120FBE701694A1C02610878704700B519
:1005C0008FB0CDE901310021059105497944CDE98C
:1005D000031011466846FFF735FE0FB000BD00005E
:1005E000E5FFFFFF0A6802F8010B0A60704710B5CB
:1005F000436913B1AFF3008001E0FFF757FE01201C
:1006000010BD127800F124010A7000224A70012204
:10061000EDE711684FF0FF32E9E74FF000020429DF
:10062000C0F0128010F0030C3FF4D8AECCF1040CF3
:10063000BCF1020F18BF00F8012BA8BF20F8022B55
:10064000A1EB0C01FFF7CABE5FEAC17C24BF00F832
:10065000012B00F8012B48BF00F8012B7047000068
:10066000004870475C35002070477546FFF7F8FF7B
:10067000AE4605006946534620F00700854618B08F
:1006800020B5FFF7B9FDBDE820404FF000064FF060
:1006900000074FF000084FF0000B21F00701AC46B7
:1006A000ACE8C009ACE8C009ACE8C009ACE8C009D6
:1006B0008D46704710B50446AFF300802046BDE874
:1006C0001040FFF784BD000001491820ABBEFEE7D3
:1006D0002600020010B504462146024801F066F8E3
:1006E00010BD00002C33002010B5044801F071F853
:1006F000042801D0012010BD0020FCE72C3300208D
:1007000010B5002400F014F8012801D0012010BD1C
:10071000064801F070F8044634B94FF4006103480C
:1007200000F0FCFE00B101242046F0E72C3300204D
:1007300008B5012000909DF8000008BD2DE9F843A0
:1007400004460D4616461F464FF0000833462A461B
:1007500021460548009701F017F908B14FF001084C
:100760004046BDE8F88300002C3300202DE9F84313
:1007700004460D4616461F464FF0000833462A46EB
:1007800021460548009701F04BFA08B14FF00108E7
:100790004046BDE8F88300002C33002000BFFEE790
:1007A000704701B5009801E0401E00900028FBD181
:1007B00008BD30B504460D4600222946204600F00B
:1007C00001F830BDF0B50346012500241148407AF8
:1007D00001281CDC00200F4E767A0E4FB8553846A3
:1007E000467A001D40F82630001F467A08308255B0
:1007F0003E46707A461C7E72044604F13000087052
:100800003A2048702F2088700020C87000252846A4
:10081000F0BD00005035002070B50446B3F5804FA0
:1008200013D1D1E9000540EA05108D6840EA0520A2
:100830008D6928438D8940EA054054F82250064EC0
:100840003540284344F8220003E06FF0704044F83C
:100850002200002070BD00000000F0CF70B50246FD
:10086000086852F8200020F001000E6842F82600C7
:100870008868082801D1402300E000234868184315
:100880008E683043CE6830430E6930434E69304342
:10089000CE6930430E6A30434E6A30438E6A30432D
:1008A000CE6A30430E6B40EA060488690443486B05
:1008B0000443074D45F4806545F4E025086852F887
:1008C0002000A84320430E6842F82600002070BD97
:1008D0007FFB080010B50346D1E9000440EA04108C
:1008E0008C6840EA04208C8940EA0444088A401E4F
:1008F00044EA0054087D801E44EA00608C6920436D
:10090000541C53F8244004F040442043541C43F842
:100910002400002010BD000070B5044600F0F4F97A
:1009200006462546681C10B104480078054400BFFF
:1009300000F0EAF9801BA842FAD370BD180000202D
:1009400000B585B0002001900290039004901748F4
:10095000006808B105B000BD01201449086000BF5F
:100960001348406940F48070114948610846406965
:1009700000F48070009000BF00BF4FF680700190BF
:10098000022002900320049001A90A4800F016F802
:100990004CF6B3700190022002900320049001A94C
:1009A000054800F00BF800BFD4E700000800002065
:1009B0000010024000180140001401402DE9F847E2
:1009C000024600239C467BE14FF0010808FA03F43D
:1009D000D1F8008008EA0400A0427DD1DFF8F4A23B
:1009E000D1F80480A8EB0A09D0453AD014DCB8F15C
:1009F000030F50D009DCB8F1000F31D0B8F1010F6E
:100A00001CD0B8F1020F49D120E0B8F1110F18D075
:100A1000B8F1120F42D11EE0B9F5881F25D006DCCF
:100A2000B9F5803F20D0B9F5801F37D11AE0B9F56C
:100A3000001F18D0B9F5041F30D117E0D1F80CC051
:100A40002DE0D1F80C8008F1040C28E0D1F80C80DE
:100A500008F1080C23E0D1F80C8008F10C0C1EE022
:100A600000BF00BF00BF00BF00BF00BFD1F80880BB
:100A7000B8F1000F02D14FF0040C0BE0D1F8088060
:100A8000B8F1010F03D14FF0080C146102E04FF0F0
:100A9000080C546103E04FF0000C00E000BF00BF01
:100AA000FF2801D8904601E002F104084646FF28DD
:100AB00002D84FEA830803E0A3F108084FEA880848
:100AC0004746D6F800804FF00F0909FA07F928EADF
:100AD00009080CFA07F900E07AE048EA0908C6F8C4
:100AE0000080D1F8048008F08058B8F1805F6FD1A1
:100AF00000BFDFF8E481D8F8188048F00108DFF87B
:100B0000D891C9F81880C846D8F8188008F00108AC
:100B1000CDF8008000BF00BF4FEAB9384FEA930913
:100B200058F829504FEA83784FEA18794FF00F08A8
:100B300008FA09F825EA0805DFF8A081424502D144
:100B40004FF0000824E0DFF89881424502D14FF0D1
:100B500001081DE0DFF88C81424502D14FF0020808
:100B600016E0DFF88481424502D14FF003080FE020
:100B7000DFF87881424502D14FF0040808E0DFF841
:100B80007081424502D14FF0050801E04FF00608A0
:100B90004FEA83794FEA197908FA09F848EA050516
:100BA000DFF850814FEA930948F82950D1F80480C2
:100BB00008F48038B8F5803F0BD1DFF83C81D8F8D5
:100BC000008048EA0008DFF83091C9F800800AE0A8
:100BD00075E0DFF82481D8F8008028EA0008DFF803
:100BE0001891C9F80080D1F8048008F40038B8F5ED
:100BF000003F0ED1DFF8008108F10408D8F800802A
:100C000048EA0008DFF8F09009F10409C9F800800B
:100C10000DE0DFF8E48008F10408D8F8008028EA45
:100C20000008DFF8D49009F10409C9F80080D1F870
:100C3000048008F48018B8F5801F0ED1DFF8B88062
:100C400008F10808D8F8008048EA0008DFF8A89002
:100C500009F10809C9F800800DE0DFF89C8008F16F
:100C60000808D8F8008028EA0008DFF88C9009F11D
:100C70000809C9F80080D1F8048008F40018B8F514
:100C8000001F0ED1DFF8708008F10C08D8F8008042
:100C900048EA0008DFF8609009F10C09C9F8008003
:100CA0000DE0DFF8548008F10C08D8F8008028EA3D
:100CB0000008DFF8449009F10C09C9F800805B1CBA
:100CC000D1F8008028FA03F8B8F1000F7FF47CAE69
:100CD000BDE8F88700001110001002400008014034
:100CE000000C0140001001400014014000180140B8
:100CF000001C014008000140000401400AB10161EC
:100D000001E00B0403617047014800687047000070
:100D1000100000200348006803490978084401498D
:100D200008607047100000201800002010B5084827
:100D3000006840F0100006490860032000F098F8B1
:100D4000002000F007F800F02BF8002010BD000094
:100D50000020024070B504460E4800784FF47A71C6
:100D6000B1FBF0F00C490968B1FBF0F5284601F041
:100D7000A7F808B1012070BD102C07D2002221462F
:100D8000501E00F037F80548046001E00120F2E74A
:100D90000020F0E7180000201C00002014000020B4
:100DA00008B500BF1148806940F001000F49886113
:100DB0000846806900F00100009000BF00BF00BF3E
:100DC0000846C06940F08050C8610846C06900F01C
:100DD0008050009000BF00BF00BF0549486820F068
:100DE000E06040F00070486000BF08BD00100240A5
:100DF000000001402DE9F05F80460D4616460027B1
:100E000002F0B0FB074639462A46334601F0070098
:100E1000C0F1070ABAF1040F02D94FF0040A01E049
:100E2000C0F1070AD14600F1040ABAF1070F02D255
:100E30004FF0000A01E0A0F1030AD4464FF0010A86
:100E40000AFA09FAAAF1010A0AEA020A0AFA0CFAEB
:100E50004FF0010B0BFA0CFBABF1010B0BEA030B90
:100E60004AEA0B042146404602F084FBBDE8F09FAD
:100E700000BF00F00702064B19684FF6FF03194048
:100E8000044B0B4343EA0221014B196000BF70473A
:100E90000CED00E00000FA0570B504460D460CB9F3
:100EA000012070BD5A48006800F00700A8420ED229
:100EB0005748006820F00700284355490860084655
:100EC000006800F00700A84201D00120E9E720787F
:100ED00000F0020002281DD1207800F00400042850
:100EE00005D14C48406840F4E0604A4948602078A9
:100EF00000F00800082805D14648406840F46050DA
:100F0000444948604348406820F0F000A168084325
:100F100040494860207800F0010078B360680128FB
:100F200006D13C48006800F4003090B90120B8E7D1
:100F30006068022806D13748006800F0007040B9A8
:100F40000120AEE73348006800F0020008B9012034
:100F5000A7E73048406820F00300616808432D4946
:100F60004860FFF7D1FE064609E0FFF7CDFE801B83
:100F700041F28831884202D9032092E707E02548F0
:100F8000406800F00C006168B0EB810FEDD12048A3
:100F9000006800F00700A8420ED91D48006820F044
:100FA000070028431A4908600846006800F0070057
:100FB000A84201D0012074E7207800F00400042842
:100FC00007D11448406820F4E060E1680843114903
:100FD0004860207800F00800082808D10D484068D3
:100FE00020F46050216940EAC1000A49486000F0DD
:100FF00019F808494968C1F30311074A515CC84010
:101000000649086006480068FFF7A4FE002048E78C
:101010000020024000100240E05F00081C00002099
:1010200014000020F0B585B00FF26C0C9CE8E010C5
:1010300001A8A0E8E0101CA52D6800950021002261
:10104000002300240020194D696801F00C05F5B15A
:10105000042D02D0082D19D101E0154819E001AD89
:10106000C1F38346AC5D01F4803555B10F4D6D6819
:10107000C5F340451DF805200D4D6543B5FBF2F362
:1010800002E00C4D04FB05F3184602E000BF0848DF
:1010900000BF00BF05B0F0BD020304050607080944
:1010A0000A0B0C0D0E0F1010010200000010024080
:1010B00000127A0000093D00F8B504460CB9012081
:1010C000F8BD207800F00100002878D0F84840688A
:1010D00000F00C0004280CD0F548406800F00C002B
:1010E000082811D1F248406800F48030B0F5803F04
:1010F0000AD1EF48006800F4003000285FD0606833
:1011000000285CD10120DBE700BF6068B0F5803FBC
:1011100006D1E748006840F48030E549086028E0DF
:10112000606858B9E248006820F48030E0490860FF
:101130000846006820F4802008601AE06068B0F576
:10114000A02F0BD1DA48006840F48020D84908600D
:101150000846006840F4803008600AE0D44800681F
:1011600020F48030D24908600846006820F48020CE
:10117000086000BF606888B1FFF7C6FD054606E05D
:10118000FFF7C2FD401B642801D9032098E7C84837
:10119000006800F400300028F2D010E0FFF7B4FD42
:1011A000054606E0FFF7B0FD401B642801D9032087
:1011B00086E7BF48006800F400300028F2D12078AC
:1011C00000F00200022857D1B948406800F00C0036
:1011D00050B1B748406800F00C00082818D1B44856
:1011E000406800F4803098B9B148006800F002000F
:1011F00020B12069012801D0012061E7AC480068D6
:1012000020F0F800616940EAC100A949086033E0B4
:101210002069E8B10120A7490860FFF775FD054680
:1012200006E0FFF771FD401B022801D9032047E7C4
:101230009F48006800F002000028F2D09C48006837
:1012400020F0F800616940EAC1009949086013E0A4
:10125000002098490860FFF757FD054606E0FFF7B4
:1012600053FD401B022801D9032029E7904800685C
:1012700000F002000028F2D1207800F008000828D1
:101280002DD1A069B8B101208B490860FFF73CFD62
:10129000054606E0FFF738FD401B022801D9032070
:1012A0000EE78348406A00F002000028F2D00120D7
:1012B00001F0E0F913E000207F490860FFF724FD0A
:1012C000054606E0FFF720FD401B022801D9032058
:1012D000F6E67748406A00F002000028F2D1207854
:1012E00000F00400042873D100277148C06900F0A1
:1012F000805070B900BF6E48C06940F080506C49A2
:10130000C8610846C06900F08050009000BF00BF6F
:1013100001276A48006800F48070B0B96748006827
:1013200040F4807065490860FFF7EEFC054606E072
:10133000FFF7EAFC401B642801D90320C0E65F48A0
:10134000006800F480700028F2D000BFE068012837
:1013500006D15748006A40F001005549086227E06D
:10136000E06858B95248006A20F00100504908620C
:101370000846006A20F00400086219E0E0680528C9
:101380000BD14B48006A40F0040049490862084606
:10139000006A40F0010008620AE04548006A20F057
:1013A0000100434908620846006A20F00400086210
:1013B00000BFE068A0B1FFF7A7FC054609E0FFF712
:1013C000A3FC401B41F28831884202D9032077E612
:1013D00022E03748006A00F002000028EFD012E057
:1013E000FFF792FC054608E0FFF78EFC401B41F238
:1013F0008831884201D9032062E62D48006A00F056
:1014000002000028F0D1012F05D12948C06920F041
:1014100080502749C86100BFE069C8B324484068CC
:1014200000F00C00082860D0E069022848D10020B4
:1014300020490866FFF768FC054606E0FFF764FCF4
:10144000401B022801D903203AE61948006800F041
:1014500000700028F2D1206AB0F5803F07D114480F
:10146000406820F40030A168084311494860D4E97D
:10147000080108430E49496821F4741108430C49D6
:10148000486001200B490866FFF73EFC054607E06F
:101490003DE0FFF739FC401B022801D903200FE68D
:1014A0000348006800F000700028F2D02FE0000030
:1014B000001002400000424280044242007000409E
:1014C000002014490866FFF71FFC054606E0FFF7F9
:1014D0001BFC401B022801D90320F1E50E480068DF
:1014E00000F000700028F2D111E0E069012800D17D
:1014F000E6E50948466806F48031206A814204D155
:1015000006F47011606A814201D00120D8E5002004
:10151000D6E500000000424200100240F0B589B05C
:1015200004460E460027032084F83400606C03282C
:1015300020D0B6F5805F04D1A06B40F08050A0634E
:101540001CE0B6F5006F07D1204601F09BFE054672
:10155000A06B2843A06311E03EB9204601F05EFE77
:101560000546A06B2843A06308E0A06B40F0006034
:10157000A06303E0A06B40F08050A063A06B38B183
:10158000174821688863012084F83400012713E09C
:1015900060680390A0680490E06805900696606912
:1015A0000790A069089006A807C88DE80700206882
:1015B00003A90EC901F097F84FF40071206801F0FB
:1015C0000DF9054635B1064821688863A06B2843AC
:1015D000A0630127012084F83400384609B0F0BD2B
:1015E000FF05400010B50246506E800F0870506E27
:1015F000C0F383604870506EC0F301608870506E15
:10160000000CC870B2F86400000A087192F8640017
:101610004871906E000DC880906EC0F30340087250
:101620006820805AC0F3C03048726820805AC0F3E6
:10163000803088726820805AC0F34030C8726820B9
:10164000805AC0F30030087300204873506C0028A3
:1016500036D16820805A8005030DD06E43EA907021
:101660000861D06EC0F3C2600875D06EC0F302602E
:101670004875D06EC0F342508875D06EC0F382407A
:10168000C875D06EC0F3C23008760869401C50653A
:101690000B7E506D03F007039B1C01249C406043AC
:1016A0005065087A00F00F03012098409065D2E958
:1016B00015035B0A5843D0654FF40073136621E0AD
:1016C000506C012813D16820805C8006830AD06E9C
:1016D00043EA104008610869401C83025365536D5A
:1016E000D3654FF400739365936D13660AE02E483B
:1016F00013689863906B40F080509063012082F8EB
:10170000340010BD6C20805AC0F3803001F8190FEE
:101710006C20805AC0F3C61048706C20805C00F0CA
:101720007F008870106FC00FC870106FC0F34170D9
:101730000871106FC0F382604871106FC0F383505E
:101740008871106FC0F34050C87100200872106F8C
:10175000C0F3004048727020805AC0F3C0308872D5
:101760007020805AC0F38030C8727020805AC0F355
:10177000403008737020805AC0F3003048737020E6
:10178000805AC0F3812088737020805AC0F30120F2
:10179000C8737020805CC0F3460008740120487450
:1017A00019390020ADE70000FF0540000246506CEB
:1017B0000860906C4860D06C8860106DC860506D97
:1017C0000861906D4861D06D8861106EC86100201D
:1017D0007047F8B50446002000906946204601F0A5
:1017E00005FD054615B1A06B2843A0630098C0F322
:1017F00043263046F8BD10B504460CB9012010BD93
:1018000094F8340020B900202077204600F068F8D2
:10181000032084F83400204600F00CF808B10120C1
:10182000EDE70020A0632063012084F8340000204D
:10183000E5E7000070B58AB00446002004900590EA
:101840000690079008907620099007A807C88DE8B1
:101850000700206804A90EC900F045FF064616B12E
:1018600001200AB070BD00201B490860206800F00C
:1018700054FF01201849A039C1F8A000204601F00A
:101880004FFC05463DB1012084F83400A06B28438D
:10189000A0630120E5E7204601F0C1FB05463DB10C
:1018A000012084F83400A06B2843A0630120D8E70E
:1018B0004FF40071206800F091FF05464DB10748D4
:1018C00021688863A06B2843A063012084F834005A
:1018D000C7E70020C5E70000A0003042FF05400038
:1018E00010B586B004460020029003900490059045
:1018F0002149206888423CD100BF2048406940F41B
:1019000080601E4948610846406900F4806001908B
:1019100000BF00BF00BF0846806940F0100088612A
:101920000846806900F01000019000BF00BF00BFB2
:101930000846806940F0200088610846806900F010
:101940002000019000BF00BF4FF4F8500290022029
:1019500003900320059002A90948FFF72FF80420FF
:101960000290022003900320059002A90548FFF78A
:1019700025F806B010BD00000080014000100240B4
:1019800000100140001401402DE9FF4F89B00446CA
:101990008B469946DDF858A0FFF7B6F902900B98F0
:1019A00000905D46BBF1000F07D1A06B40F00060D6
:1019B000A06301200DB0BDE8F08F94F83400012839
:1019C0007ED10020A063009800EB0901E06D814208
:1019D00005D9A06B40F00070A0630120EAE7032066
:1019E00084F8340000202168C862606C012802D0AD
:1019F0000098400200904FF0FF3003904FEA4920DA
:101A0000049090200590022006900020079001206D
:101A1000089003A9206800F041FEB9F1010F07D931
:101A2000022020632068009900F040FF804606E015
:101A3000012020632068009900F054FF8046B8F12F
:101A4000000F0DD0754821688863A06B40EA08003C
:101A5000A063012084F83400002020630120A9E75E
:101A6000049E3AE02068406B00F40040E0B1DEB133
:101A70000020019015E0206800F058FE07462F7006
:101A80006D1C761E380A28706D1C761E380C287066
:101A90006D1C761E380E28706D1C761E0198401C39
:101AA000019001980828E6D3FFF72EF90299401A11
:101AB000504502D2BAF1000F0FD15848216800E01A
:101AC000A6E08863A06B40F00040A063012084F88A
:101AD00034000020206303206CE72068406B40F254
:101AE0002A3108400028BDD02068406B00F4807087
:101AF000D0B1B9F1010F17D9606C032814D0206858
:101B000000F0B0FF8046B8F1000F0DD043482168C7
:101B10008863A06B40EA0800A063012084F83400C9
:101B200000202063012045E72068406B00F008009A
:101B300068B13A4821688863A06B40F00800A06350
:101B4000012084F8340000202063012032E720685F
:101B5000406B00F0020068B1304821688863A06BD8
:101B600040F00200A063012084F8340000202063CC
:101B700001201FE72068406B00F0200068B1274873
:101B800021688863A06B40F02000A063012084F8E6
:101B900034000020206301200CE729E0206800F0D9
:101BA000C5FD07462F706D1C761E380A28706D1C07
:101BB000761E380C28706D1C761E380E28706D1C31
:101BC000761EFFF7A1F80299401A504502D2BAF1E9
:101BD000000F0DD1114821688863A06B40F00040D0
:101BE000A063012084F83400002020630120E1E696
:101BF0002068406B00F4001008B1002ECED140F2F6
:101C00003A5021688863012084F834000020D1E62E
:101C1000A06B40F00050A0630120CBE6FF05400020
:101C20002DE9F04F89B00446894693469846FFF760
:101C30006BF80290DA464D46B9F1000F07D1A06B60
:101C400040F00060A063012009B0BDE8F08F94F877
:101C5000340001287ED10020A0630AEB0801E06D6A
:101C6000814205D9A06B40F00070A0630120EBE732
:101C7000032084F8340000202168C862606C0128C9
:101C800001D04FEA4A2A4FF0FF3003904FEA482034
:101C90000490902005900020069007900120089065
:101CA00003A9206800F0FAFCB8F1010F07D9202041
:101CB00020635146206800F0F3FE064606E010203F
:101CC00020635146206800F007FF064666B15F4872
:101CD00021688863A06B3043A063012084F834003E
:101CE000002020630120AFE7049F43E02068406BA1
:101CF00000F4804030B32FB3002001901FE028781B
:101D000000906D1C7F1E2878009941EA0020009009
:101D10006D1C7F1E2878009941EA004000906D1CE0
:101D20007F1E2878009941EA006000906D1C7F1E9C
:101D30006946206800F012FD0198401C019001984E
:101D40000828DCD3FEF7E0FF0299411A129881427D
:101D500003D200E074E0129860B93C4821688863BF
:101D6000A06B3043A063012084F83400002020637E
:101D7000032069E72068406B40F21A3108400028D0
:101D8000B4D02068406B00F48070B8B1B8F1010F96
:101D900014D9606C032811D0206800F063FE064659
:101DA00066B12A4821688863A06B3043A063012094
:101DB00084F8340000202063012045E72068406B50
:101DC00000F0080068B1214821688863A06B40F0EA
:101DD0000800A063012084F8340000202063012063
:101DE00032E72068406B00F0020068B117482168B4
:101DF0008863A06B40F00200A063012084F83400E7
:101E00000020206301201FE72068406B00F01000D5
:101E100068B10E4821688863A06B40F01000A06391
:101E2000012084F834000020206301200CE740F2F8
:101E30003A5021688863012084F83400002003E7C9
:101E4000A06B40F00050A0630120FDE6FF054000BC
:101E500070B504460E4615461CB1A069B0F5807FEA
:101E600001D1012070BD94F8410028B9002084F808
:101E70004000204600F01FF804F108012068FEF73A
:101E8000EDFC3146A2682068FEF724FD2946236B4D
:101E9000D4E90102FEF7C0FCA168206850F82100D7
:101EA00040F00100A268216841F82200012084F876
:101EB00041000020D6E710B50446FEF741FD10BDF5
:101EC00070B504462546681EB0F1807F01D301201D
:101ED0000FE0681E4FF0E02148610F214FF0FF3006
:101EE00001F048FB00204FF0E021886107200861E5
:101EF000002070BD30B502460B4600BF92F83C0092
:101F0000012801D1022030BD012082F83C0000BF31
:101F1000022082F83D00106844681068816824F04F
:101F200070041868044310684460144D1068A84297
:101F300013D0134D1068A8420FD01068B0F1804F35
:101F40000BD0104D1068A84207D00F4D1068A84262
:101F500003D00E4D1068A84205D121F080015868C9
:101F6000014310688160012082F83D0000BF00201D
:101F700082F83C0000BF00BFC5E70000002C014014
:101F8000003401400004004000080040000C004004
:101F90002DE9F04104460D4614B90120BDE8F08159
:101FA00094F83D0028B9002084F83C00204600F059
:101FB00051F8022084F83D002068806844F207014F
:101FC000884321688860211D206801F069FA206833
:101FD000D0F80880206886692068076A286840EA87
:101FE000080840F203308643A969A86840EA012046
:101FF000064340F60C4086434FF2F0008643E96901
:10200000E86840EA0120064328690001296A40EA9D
:102010000130064327F022076969686840EA011029
:1020200007432068C0F8088020688661206807623E
:10203000012084F8460084F83E0001213F2001552C
:10204000012084F8420043200155012084F83D001E
:102050000020A3E710B586B004460020029003904C
:102060000490059014492068884223D100BF13488A
:10207000C06940F002001149C8610846C06900F01B
:102080000200019000BF00BF00BF0846806940F019
:10209000040088610846806900F00400019000BFD8
:1020A00000BFC020029000200390049002A90448C1
:1020B000FEF784FC06B010BD000400400010024092
:1020C000000801402DE9F04304460D4694F83E60B7
:1020D0003F20075D94F84280432010F804906DB9CA
:1020E000012E02D1B8F1010F02D00120BDE8F0832A
:1020F000022084F83E0084F8420025E0042D0CD133
:10210000012F02D1B9F1010F01D00120EEE7022128
:102110003F2001554320015516E0012E07D1012F24
:1021200005D1B8F1010F02D1B9F1010F01D00120A1
:10213000DCE7022084F83E0002213F200155022006
:1021400084F842004320015515B1042D0CD105E05F
:1021500001220021206801F0F1F910E001220421A0
:10216000206801F0EBF90AE001220021206801F06B
:10217000E5F901220421206801F0E0F900BF00BF69
:102180002068006840F00100216808600020ADE789
:1021900000BFFEE7044B4FF4805108B1002200E07D
:1021A00001221846FEF7AABD0014014070B51D4675
:1021B0001446049E00F072F804FB05F03146BDE8B9
:1021C000704000F049B8000070B5203AD4B2102336
:1021D000082200F063F82C20C10608800C490D4B42
:1021E00001EB041500204FF6FF742A5C0021D6078E
:1021F00002D01F261E8000E01C80491C5208C9B274
:102200000829F4D3401CC0B21028EED370BD0000E2
:102210007059000800000260F0B516460D460446ED
:102220004FF4A07714E000BF04F10800F02802D9B1
:1022300000241035ADB205F11000B84201D90024D8
:10224000254629462046FFF7BFFF0834A4B2761C76
:102250003278002AE8D1F0BD10B500222C23DC062C
:102260002380034B01E01980521C8242FBD310BD36
:102270000000026008B50120FFF78CFF00F0EAF8CB
:1022800000F02CF84FF6FF70002100904FF4A0737F
:10229000F0220846FFF78AFF08BD000070B54FF036
:1022A000C0452A242C800C4C060A2680C6B2268003
:1022B0001044401E020A2280C0B220802B202880B9
:1022C000080A2080C8B22080C818401E010A218058
:1022D000C0B2208070BD00000000026000B54FF069
:1022E000C041CF200880594800220280812202800C
:1022F00030220280ED220A806422028003220280C2
:102300001222028081220280E8220A808522028035
:102310001022028078220280CB220A803922028099
:102320002C220280002202803422028002220280BB
:10233000F7220A8020220280EA220A8000220280FC
:102340000280B1220A80002202801B220280B62273
:102350000A800A220280A2220280C0220A8035223C
:102360000280C1220A8011220280C5220A804522F1
:1023700002800280C7220A80A2220280F2220A8002
:102380000022028026220A8001220280E0220A80A6
:102390000F22028026220280242202800B22028049
:1023A0000E2202800922028054220280A82202808A
:1023B000462202800C22028017220280092202801B
:1023C0000F2202800722028000220280E1220A807E
:1023D00000220280192202801B2202800422028035
:1023E00010220280072202802A22028047220280D5
:1023F00039220280032202800622028002803022DB
:102400000280382202800F22028036220A80C822EF
:1024100002802A220A800022028002800280EF22AB
:1024200002802B220A800022028002800122028088
:102430003F2202803A220A80552202801120088021
:102440000348FEF7AEF92920088000BD00000260B5
:10245000FCBF020070B50A4C002202212046FEF7A4
:102460004DFC084D2846FEF79CF90122022120462A
:10247000FEF744FC2846BDE87040FEF792B9000024
:1024800000180140FCBF020010B504490448FEF7E3
:1024900090F90249491E087010BD0000010000209B
:1024A0007465000800B587B01C216846FDF794FFED
:1024B00017484FF020411022016016494160002169
:1024C0008160C160C0E904128161C16113020162CF
:1024D000C0E90913C1620163416381630F20FF23D7
:1024E0000090CDE90103CDE903021120CDE90501FA
:1024F000002269460648FFF7ABFC08B172B6FEE75A
:102500000548C16941F48061C16107B000BD0000A8
:10251000F8330020040100A0000001402DE9F0473D
:1025200086B0002431480094019402940394816998
:1025300041F010018161816901F01001049181690C
:1025400041F004018161816901F004010491816914
:1025500041F008018161816901F0080104918169FC
:1025600041F040018161816901F04001049181697C
:1025700041F0200181618069DFF8748000F0200063
:102580000490012223214046FEF7B8FBDFF8649057
:102590004FF48057002239464846FEF7AFFBDFF87C
:1025A00058A0002202215046FEF7A8FB2320012557
:1025B0000326CDE90005CDE9024669464046FEF70F
:1025C000FDF900970396CDE9015469464846FEF7A8
:1025D000F5F90220CDE90005CDE9024669465046ED
:1025E000FEF7ECF906B0BDE8F087000000100240ED
:1025F000000C0140001401400018014010B58CB0DF
:1026000024216846FDF7E8FE002416480994144981
:102610000A94C0E900144FF6FF71C0E90241046159
:1026200084610320CDE900040120CDE902040F21DB
:102630000491CDE90540CDE9074169460948FFF716
:10264000A7FC08B172B6FEE7099409A905480A94E7
:10265000FFF750FC002801D072B6FEE70CB010BDA9
:1026600000040040B033002000BFFEE700BFFEE7DB
:102670007047000008B508490968C9084FF47A7224
:10268000B1FBF2F14143009100BF00BF00994A1E27
:1026900000920029F9D108BD1C00002010B50246A7
:1026A00000230868506248689062D1E90204204320
:1026B0000C6920434C6920430343D06A20F0F700A3
:1026C0001843D062002010BD01460869C0B27047AF
:1026D0000146086800F003007047024602F114004A
:1026E0004318186870470FB410B504460021DDE99F
:1026F00003021043059A1043069A1043079A1043A9
:10270000089A10430143606847F6FF62904308430C
:102710006060002010BC5DF814FB10B50446032077
:1027200020600220FEF7F8F8002010BD0146D1F825
:102730008000704710B50246002308689060D1E918
:1027400001042043CC6820430C6920430343D06834
:102750006FF30B001843D060002010BD02460868DC
:10276000C2F880000020704770B586B005460C4660
:1027700001943720029040200390002004904FF4F1
:102780008060059001A92846FFF7D4FF41F2883206
:102790003721284600F0DCF90646304606B070BD09
:1027A00070B586B005460C460B48204301902920A1
:1027B000029040200390002004904FF48060059028
:1027C00001A92846FFF7B6FF284600F0C9FA0646D9
:1027D000304606B070BD00000000108070B586B0B5
:1027E00005460C46019410200290402003900020E2
:1027F00004904FF48060059001A92846FFF79AFFE6
:1028000041F288321021284600F0A2F906463046EF
:1028100006B070BD70B586B005460C460194062022
:10282000029040200390002004904FF480600590B7
:1028300001A92846FFF77EFF41F28832062128468B
:1028400000F086F90646304606B070BD30B585B05A
:102850000446002000900190029003904FF48060A5
:10286000049069462046FFF765FF204600F050F9C6
:102870000546284605B030BD30B585B004464FF456
:10288000D570009008200190402002900020039015
:102890004FF48060049069462046FFF74BFF2046C6
:1028A00000F0E6FA0546284605B030BD70B586B0A2
:1028B00005460C460194122002904020039000200F
:1028C00004904FF48060059001A92846FFF732FF7D
:1028D00041F288321221284600F03AF90646304685
:1028E00006B070BD70B586B005460C460194112047
:1028F000029040200390002004904FF480600590E7
:1029000001A92846FFF716FF41F288321121284617
:1029100000F01EF90646304606B070BDF0B585B031
:10292000064614461D460094072001904020029060
:10293000002003904FF48060049069463046FFF712
:10294000F9FE41F288320721304600F001F90746CE
:10295000384605B0F0BD30B585B004460020009083
:1029600002200190C0200290002003904FF480606C
:10297000049069462046FFF7DDFE204600F0BEF9D0
:102980000546284605B030BD70B586B005460C46F4
:10299000019409200290C0200390002004904FF47D
:1029A0008060059001A92846FFF7C4FE284600F084
:1029B000A5F90646304606B070BD30B585B0044670
:1029C00000200090332001904020029000200390CE
:1029D0004FF48060049069462046FFF7ABFE41F259
:1029E00088323321204600F0B3F80546284605B06A
:1029F00030BD70B586B005460C4601940D2002909E
:102A000040200390002004904FF48060059001A9BD
:102A10002846FFF78FFE41F288320D21284600F04C
:102A200097F80646304606B070BD70B586B00546CC
:102A30000C460020019003200290402003900020CB
:102A400004904FF48060059001A92846FFF772FEBC
:102A500022460321284600F0AFF90646304606B06C
:102A600070BD000030B585B00446002000900C20F9
:102A7000019040200290002003904FF48060049069
:102A800069462046FFF756FE044A0C21204600F016
:102A90005FF80546284605B030BD000000E1F505A9
:102AA00070B586B005460C4601941920029040206E
:102AB0000390002004904FF48060059001A92846FF
:102AC000FFF738FE41F288321921284600F040F81D
:102AD0000646304606B070BD70B586B005460C4659
:102AE00001941820029040200390002004904FF49D
:102AF0008060059001A92846FFF71CFE41F288324C
:102B00001821284600F024F80646304606B070BD6D
:102B100001460E480068C0084FF47A73B0FBF3F02A
:102B200041F2883300FB03F200BF101EA2F1010244
:102B300002D14FF000407047486B00F08000002841
:102B4000F3D0C52088630020F5E700001C000020BA
:102B50002DE9F04305460F46904666480068C008D8
:102B60004FF47A71B0FBF1F000FB08F900BFB9F146
:102B70000000A9F1010903D14FF00040BDE8F08346
:102B80006E6B06F045000028F1D006F400600028C6
:102B9000EDD1686B00F0040010B10420A863EDE7EC
:102BA000686B00F0010010B10120A863E6E7C520C2
:102BB000A8632846FFF788FDB84201D00120DDE771
:102BC00000212846FFF789FD04464B48204008B9FC
:102BD0000020D3E704F00040B0F1004F02D14FF0E5
:102BE0000070CBE704F08040B0F1804F01D140206D
:102BF000C4E704F00050B0F1005F01D18020BDE7D0
:102C000004F08050B0F1805F02D14FF48070B5E7DE
:102C100004F00060B0F1006F02D14FF40070ADE736
:102C200004F08060B0F1806F02D14FF48060A5E7BE
:102C300004F08070B0F1807F02D14FF400609DE716
:102C400004F40000B0F5000F02D14FF4805095E776
:102C500004F48000B0F5800F02D14FF400508DE7EE
:102C600004F40010B0F5001F02D14FF4804085E756
:102C700004F48010B0F5801F02D14FF400407DE7CE
:102C800004F48020B0F5802F02D14FF4003075E7B6
:102C900004F40030B0F5003F02D14FF480206DE71E
:102CA00004F48030B0F5803F02D14FF4002065E796
:102CB00004F40040B0F5004F02D14FF480105DE7FE
:102CC00004F48040B0F5804F02D14FF4001055E776
:102CD00004F40050B0F5005F02D14FF480004DE7DE
:102CE00004F00800082801D1000547E74FF48030C0
:102CF00044E700001C00002008E0FFFD10B501467D
:102D000016480068C0084FF47A74B0FBF4F041F242
:102D1000883400FB04F300BF181EA3F1010302D1A5
:102D20004FF0004010BD4A6B02F045000028F3D080
:102D300002F400600028EFD1486B00F0040010B1ED
:102D400004208863EEE7486B00F0010010B1012019
:102D50008863E7E7C52088630020E3E71C000020C4
:102D600010B5014613480068C0084FF47A74B0FBF0
:102D7000F4F041F2883400FB04F300BF181EA3F105
:102D8000010302D14FF0004010BD4A6B02F0450034
:102D90000028F3D002F400600028EFD1486B00F067
:102DA000040010B104208863EEE7C520886300208A
:102DB000EAE700001C0000202DE9F04304460F461E
:102DC00090462A480068C0084FF47A71B0FBF1F0D1
:102DD00041F2883100FB01F900BFB9F10000A9F10F
:102DE000010903D14FF00040BDE8F083666B06F0A7
:102DF00045000028F1D006F400600028EDD1606B9A
:102E000000F0040010B10420A063EDE7606B00F057
:102E1000010010B10120A063E6E72046FFF754FC53
:102E2000B84201D00120DFE7C520A0630021204681
:102E3000FFF753FC054605F4604020B9280CA8F8BC
:102E400000000020D0E705F48040B0F5804F02D1AB
:102E50004FF40050C8E705F40040B0F5004F02D130
:102E60004FF48050C0E74FF48030BDE71C000020D5
:102E700010B5014618480068C0084FF47A74B0FBDA
:102E8000F4F041F2883400FB04F300BF181EA3F1F4
:102E9000010302D14FF0004010BD4A6B02F0450023
:102EA0000028F3D002F400600028EFD1486B00F056
:102EB000040010B104208863EEE7486B00F00100C5
:102EC00010B101208863E7E7486B00F0400008B1CB
:102ED000402088630020DFE71C0000202DE9F0433C
:102EE00089B004460F46FDF70FFF81464FF00008FA
:102EF0000020019002903E4608212068FFF76EFCFA
:102F000005461DB1284609B0BDE8F0835022125B8A
:102F100011042068FFF728FC05460DB12846F2E7AA
:102F20004FF0FF30039008200490302005900220DD
:102F30000690002007900120089003A92068FFF761
:102F4000ADFB2068FFF739FD05460DB12846DAE7ED
:102F50001CE02068406B00F4001040B12068FFF7CF
:102F6000E5FB01A941F8280008F1010805E0206807
:102F7000406B00F4005000B90EE0FDF7C5FEA0EB79
:102F80000900401C10B94FF00040BCE72068406BBE
:102F900000F02A000028DCD000BF2068406B00F061
:102FA000080018B1082021688863ACE72068406BEE
:102FB00000F0020018B1022021688863A3E72068AE
:102FC000406B00F0200018B12020216888639AE748
:102FD00040F23A502168886302980006029901F491
:102FE0007F4140EA0120029901F47F0140EA11206B
:102FF000029940EA11603060361D0198000601997F
:1030000001F47F4140EA0120019901F47F0140EA87
:103010001120019940EA11603060002073E730B55B
:103020008FB00446012003902068FFF751FB18B9C8
:103030004FF080600FB030BD606C03281BD020685B
:10304000FFF789FC05460DB12846F3E7002120680B
:10305000FFF743FB606704212068FFF73EFBA06792
:1030600008212068FFF739FBE0670C212068FFF793
:1030700034FB80210851606C032807D003A9206825
:10308000FFF7D3FC05460DB12846D3E7606C032853
:1030900020D0BDF80C1021655022125B110420686D
:1030A000FFF772FC05460DB12846C3E700212068F2
:1030B000FFF713FB606604212068FFF70EFBA06694
:1030C00008212068FFF709FBE0660C212068FFF764
:1030D00004FB206704212068FFF7FFFA010DE1647B
:1030E00004A92046FEF77EFA10B14FF08050A1E708
:1030F0005020005B01040A4600232068FFF70EFC05
:1031000005460DB1284695E7D4E90412A069CDE93A
:103110000012029094E80F00FFF7E5FA002089E71B
:10312000F8B5044600200090002600272068FFF72D
:103130008DFB05460DB12846F8BD2068FFF79CFBC6
:10314000054645B10021A1642068FFF77FFB0546D5
:103150001DB12846F0E70121A164A06C012808D127
:1031600000212068FFF700FB054615B14FF08050A5
:10317000E2E71DE000212068FFF7F6FA05460DB1F1
:103180002846D9E718492068FFF70AFB054615B11C
:103190004FF08050D0E700212068FFF79EFA0646E6
:1031A000012080EAD67080F001070098401C009052
:1031B0004FF6FF710098884201D2002FDAD04FF607
:1031C000FF710098884202D34FF08070B4E706F098
:1031D0008040B0F1804F02D10120606401E0002006
:1031E00060640020A8E70000000010C170B504462C
:1031F0000D4615B94FF0006070BD5022125B1104EE
:103200002068FFF7F6FB06460EB13046F4E70021D2
:103210002068FFF762FA28600020EDE77CB50446DD
:1032200000200090019000212068FFF756FA00F07E
:103230000070B0F1007F02D14FF400607CBD6946A0
:103240002046FFF74BFE05460DB12846F6E70198EC
:1032500000F4803098B15022125B11042068FFF70F
:1032600083FA05460DB12846E8E700212068FFF7FC
:10327000D1FA05460DB12846E0E70020DEE74FF021
:103280008060DBE77CB504460020009001900021BF
:103290002068FFF722FA00F00070B0F1007F02D141
:1032A0004FF400607CBD69462046FFF717FE0546D7
:1032B0000DB12846F6E7019800F4802098B150221D
:1032C000125B11042068FFF74FFA05460DB128463E
:1032D000E8E702212068FFF79DFA05460DB1284670
:1032E000E0E70020DEE74FF08060DBE710B5044642
:1032F000012007490870FDF703FA28B9044800784F
:1033000020F00100024908700148007810BD00005B
:1033100028000020F0B589B007460D461446012666
:103320001548007800F0010010B1032009B0F0BD8D
:1033300035B1012D06D0022D0BD0032D17D10FE092
:10334000002616E001A8FDF7C5F9079820600026C1
:103350000FE001A8FDF7BEF908982080002608E0DC
:1033600001A8FDF7B7F908982060002601E00426BF
:1033700000BF00BF3046D9E7280000202DE9F04704
:1033800081460C4615461E460127DFF830800C4B5F
:10339000324629462046FDF7D1F968B907E0B8F171
:1033A0000000A8F1010802D10120BDE8F087FDF777
:1033B0009BF90028F3D100273846F6E7A0860100E4
:1033C00000E1F50510B50446012007490870FDF736
:1033D0008BF928B90448007820F0010002490870F0
:1033E0000148007810BD0000280000202DE9F047BA
:1033F00081460C4615461E460127DFF830800C4BEF
:10340000324629462046FDF7B1F968B907E0B8F120
:103410000000A8F1010802D10120BDE8F087FDF706
:1034200063F90028F3D100273846F6E7A0860100AB
:1034300000E1F505704710B5FDF76CFC10BD30B527
:103440008FB028216846FCF7C7FF14210AA8FCF7B3
:10345000C3FF01210804CDE90010002402940225D5
:103460000491CDE907504FF4E01009906846FDF74C
:1034700023FE08B172B6FEE70F20CDE90A054FF42E
:103480008060CDE90C4002210AA80E94FDF704FDEE
:10349000002801D072B6FEE70FB030BD70470000C3
:1034A00010B50268204B98420ED0204B98420BD0AA
:1034B000B0F1804F08D01E4B984205D01D4B98426A
:1034C00002D01D4B984203D122F070024B681A4380
:1034D000154B98420ED0154B98420BD0B0F1804F4F
:1034E00008D0134B984205D0124B984202D0124B91
:1034F000984203D122F44072CB681A4322F0800331
:103500004C6943EA040202608B68C3620B68836201
:10351000054B984202D0054B984201D10B690363D9
:103520000123436110BD0000002C01400034014024
:103530000004004000080040000C004030B501F0DD
:103540001F05012404FA05F3046A9C430462046A1B
:1035500001F01F0502FA05F52C43046230BD00BFDF
:10356000FEE7000002480068C0F302207047000038
:103570000CED00E010B5002804DB0A07130E054A25
:10358000135406E00A07140E034A00F00F031B1F32
:10359000D45410BD00E400E018ED00E010B504467E
:1035A00000F5805000220271521EC262204601F0D6
:1035B00031FD08B1032010BDB4F8FE01A0F52A4189
:1035C000553901D0022010BD94F83600B4F83710F8
:1035D00040EA01210848B0EB012F08D094F85210BE
:1035E000B4F8532041EA0221B0EB012F01D10020B1
:1035F00010BD012010BD00000046415400E0401CF9
:1036000002780AB18A42FAD1D0B27047F0B50022EE
:10361000174B144600F5805002EB420653F8265033
:103620006DB10768BD420BD103EB860587686E68F4
:10363000BE4205D12D89C688B54204D000E00124E0
:10364000521C022AE8D3022A01D079B904E05CB9FD
:10365000022909D01220F0BD02EB420003EB8000EA
:103660004089B0F5807F01D00020F0BD1020F0BD72
:103670003835002030B50021064A0C4601EB4103E5
:1036800052F82350854201D142F82340491C0229B7
:10369000F4D330BD3835002000F58050426A006810
:1036A00000F58050438980784343B1FBF3F0121D4D
:1036B00002CA19B1884203D3401AF8E700207047C4
:1036C00011680844704700F58050891E4269921EB7
:1036D0008A4201D800207047826A807801FB00206E
:1036E00070472DE9F04180460F0000F5805407D067
:1036F000404601F0AFFA022809D20120BDE8F0816E
:10370000E66816B16069B04207D8012605E0411CA1
:10371000F4D061698142F1D83E46354660696D1C3E
:10372000A84202D80225022E0AD32946404601F0BB
:1037300091FA38B1411CE1D00128DFD0B542EDD17A
:103740000020DBE76FF070422946404601F07EFC26
:1037500030B957B12A463946404601F077FC20B1CE
:1037600001280DD001252846C8E7E5602069411CE5
:10377000F9D0401E2061607940F001006071F2E7ED
:103780004FF0FF35EFE700002DE9F84F88460D6850
:1037900000E06D1C29782F29FBD05C29F9D000F5B9
:1037A000805A0024DAF820702646A85D761C20286E
:1037B00017D32F2815D05C2813D0802C31D20121AB
:1037C00001F046F85FEA00092BD0B9F1800F04D26E
:1037D000014668A0FFF712FF18BB27F81490641C7D
:1037E000E3E7AA19C8F80020202801D2042516E032
:1037F000002514E007EB440030F8020C20280DD01F
:103800002E280BD06CB1002027F814000B222021A9
:10381000DAF8180001F0F7FB002606E0641E002C21
:10382000E8D10620BDE8F88F761C37F8160020286E
:10383000FAD02E28F8D01EB145F0030500E0641E32
:103840002CB107EB440030F8020C2E28F7D10020F1
:1038500081464FF0080B009037F8160006F101067C
:103860005FEA000824D0B8F1200F04D0B8F12E0F81
:1038700004D1A64202D045F00305EDE70098584573
:1038800001D2A6421AD1BBF10B0F0FD0A64201D034
:1038900045F003050CD84FF0080000904FEA89600E
:1038A00026464FF00B0B4FEA1069D5E745F00305AC
:1038B000DAF818000178E52938D039E04046B8F147
:1038C000800F10D3002100F0C3FF5FEA000805D08D
:1038D0002B4901EB080010F8800C804645F00205EA
:1038E000B8F1000F04D0014626A0FFF787FE20B1F3
:1038F0004FF05F0845F003050FE0A8F141001928DB
:1039000002D849F0020908E0A8F16100192804D89A
:10391000413049F001091FFA80F8DAF818200099BF
:1039200002F801800098401C009095E70521017085
:10393000BBF1080F03D14FEA89604FEA1069C9F360
:103940008100032803D06FEA0901890701D145F0FE
:103950000205A90709D409F00301012901D145F0A5
:103960001005012801D145F00805DAF81800C572E4
:10397000002057E7222A3A3C3E3F7C7F00000000AF
:10398000F85F00082B2C3B3D5B5D0000401E0228C9
:1039900015D20C4B00EB400203EB82014889B0F5D5
:1039A000807F05D008B1401E80B2488110B104E08C
:1039B0000020FAE7002043F8220000207047022090
:1039C00070470000383500202DE9F14F82B000210A
:1039D000029800F087FA00287AD1029DFF2005F5B1
:1039E00080554FF6FF7A00908146A5F824A02969FA
:1039F000286801F00FFB06000DD16C69207848B1F2
:103A0000E17AE52801F03F016DD00A0704D50F29BE
:103A100069D107E0042671E00F2903D0B9F1000F46
:103A20004AD04FE0296A89B3420606D5627B0092EC
:103A300020F04000EA888146AA84484535D1627B5F
:103A40000098824231D101912078A04620F04000B8
:103A5000401E00EB80010027DFF8A8B001EBC00694
:103A6000012400BF1BF8071001EB0800008874B1A7
:103A700000F014FF0446802E17D2019830F816008B
:103A8000761C00F00BFFA0420FD102E02FE0504562
:103A90000BD17F1C0D2FE5D398F80000400608D508
:103AA0003CB1019830F8160018B1FF2000F0FF0972
:103AB0001DE0A9F10100F9E7204601F0F7FB0099AC
:103AC00088421BD0A869C17AC9070CD10A2102E03B
:103AD00015E0491E06D314F8012B10F8013BD21A49
:103AE000F7D000E052B14FF0FF09A5F824A0002163
:103AF000029800F009F806003FF479AF3046BDE8BF
:103B0000FE8F0000786000082DE9F04100F5805438
:103B10000F46E688761C3004000C38D0216991B33A
:103B2000206800F5805253895B09B6FBF3F503FB6F
:103B30001563002B67D1491C2161E16821B35389CA
:103B400092785B09B6FBF3F3521E13425BD101F08E
:103B500081F8054601281FD9681C39D0206841F238
:103B600014010958A94248D86FB1E168FFF7B9FDBF
:103B700005000FD0012D0FD0681C29D0206801F05E
:103B8000F6FB28BB0AE002E01089B0423BD80420D3
:103B9000BDE8F0810720FBE70220F9E741F20A01C6
:103BA00020680A5A002101F02EFA29462068FFF702
:103BB0008AFD2168002701F580514FF00108C86295
:103BC0000FE000BF80F80480206801F0D0FB08B14E
:103BD0000120DDE7206800F58050C16A491C7F1C88
:103BE000C162206800F580508178B942EAD8216826
:103BF00001F58051C96AC91BC162E5602946206888
:103C0000FFF761FD2061E68041F20A012068095A50
:103C10004909B6FBF1F201FB126100EB4110606152
:103C20000020B5E72DE9F35FFF24834627460426ED
:103C30004FF6FF784FF0000900F5805567E02868DF
:103C400001F0E8F9060066D16869017881B1C27AAD
:103C5000E52902F03F0209D02E2907D022F02003E7
:103C6000082B07D0B446019B9C4506D0FF2440E0BA
:103C7000042650E04FF0010CF5E70F2A01D0ACBB51
:103C80003EE04A0605D5477B21F04001EA880C4614
:103C9000AA84A1422BD1417BB94228D10178DFF817
:103CA00080A001F03F01491E01EB810202EBC1013E
:103CB0000022D5F820C001261AF8023003441B88E0
:103CC00036B1802913D22CF811301E46491C01E070
:103CD00043450CD1521C0D2AEED30078400603D583
:103CE000802904D22CF81190641E01E00CE0FF241E
:103CF000E4B200215846FFF707FF060007D00AE0AC
:103D000001F0D4FAB84208D0A5F8248005E029696A
:103D1000002994D10EB1C5F810903046BDE8FC9F43
:103D2000786000082DE9F14F84B00C22049C6846AD
:103D300004F58054A769266A394601F05BF99DF8BD
:103D40000B00C00718D00020F872012520622B4616
:103D500032466946384600F03DFF0498FFF734FECE
:103D600010B96D1C642DF2D3642D0BD004280AD138
:103D70009DF80B00F87226629DF80B0080070FD5A6
:103D8000002004E0072005B0BDE8F08F401C36F8A5
:103D900010100029FAD10D211930B0FBF1F600E026
:103DA0000126049D0021284600F09CF8A8B94FF098
:103DB000000805F580573969386801F02BF960B9BA
:103DC00078690078E5280BD050B14FF00008012148
:103DD0002846FFF799FE0028EDD0042812D012E003
:103DE00008F101083046B045F1D1461E5FEA060AE7
:103DF00059D0E1880498A1EB0A0100F073F805009E
:103E000003D06BE00720054668E0A06901F04EFA98
:103E100003902169206801F0FDF805005ED1616919
:103E2000D4F82090039848730F20C87200200873BC
:103E300088760AF0FF0BC876ABF1010000EB800238
:103E400002EBC00500234FF6FF7E254E4A1C01E021
:103E5000604503D039F81500F4466D1CF75CC85571
:103E600016F80380070A08F8027000B960465B1C68
:103E70000D2BEDD3704502D039F8150008B94BF081
:103E8000400B81F800B02168012001F580510871D4
:103E900000210498FFF738FE05001FD1AAF10100A8
:103EA0005FEA000AB5D12169206801F0B3F8050086
:103EB00014D120220021606901F0A5F8D4E90501A0
:103EC0000B2201F097F8A0696169C07A00F0180030
:103ED00008732168012001F580510871284652E7D6
:103EE0007860000870B500F580540D46E180A36845
:103EF000012B42D0206800F58050416999423CD99D
:103F000023B90178032906D1436A23B14189807816
:103F10004E09464312E00189A9422ED9406A13E0B6
:103F200000F098FE0346401C25D0022B25D32068C4
:103F300000F58050406998421FD9AD1B2068B542FA
:103F40001946EDD2FFF7BFFBE360B0B121680A4626
:103F500001F580514B895B09B5FBF3F318442061EF
:103F600048894009B5FBF0F100FB115002EB40100D
:103F70006061002070BD012070BD022070BD000096
:103F800070B5044600250848005D58B9012006496F
:103F9000085501F10802105D0A1D52F8242011682D
:103FA00088470546284670BD503500202DE9F04170
:103FB00004460D4616460649085D091F51F82410AF
:103FC00032460B692946984707463846BDE8F081D6
:103FD000583500202DE9F04104460D4616461F468F
:103FE0000749085D091F51F824103B463246D1F8B5
:103FF00008C02946E04780464046BDE8F081000001
:104000005835002070B50446044A105D121F52F85E
:104010002420516888470546284670BD5835002041
:104020002DE9F04104460D4616461F460749085D36
:10403000091F51F824103B463246D1F80CC02946DE
:10404000E04780464046BDE8F0810000583500203A
:1040500010B5044600F0AAFB00280DD1204601F05F
:10406000AFF9002808D104F58054A06AFFF78EFC50
:10407000002801D10021216010BD2DE9FC5F0D4613
:10408000834601F09DF95FEA00096FD10BF580547A
:10409000E07900286AD1606A01274FF0020A0028FF
:1040A0007AD0691C32D0E068A84200D20546A560EB
:1040B000002D5AD05846691EFFF7EEFA606122685B
:1040C00001461046FFF7FFFA00287ED023686D1ED8
:1040D00003F580535E899A78B5FBF6F1521E1140C4
:1040E0000D18A068B0FBF6F106FB11000028E0D027
:1040F000A269AA42DDD0A07940063FD558780123B5
:104100005946FFF78DFF00287AD133E002C80091AD
:1041100021698346022501B30026AD1C0191884622
:10412000761C206800F096FD014601284DD9481CF8
:1041300066D008F101008142F1D00098854206D88E
:10414000CBF800600BF10400019A04C0834620689C
:1041500000F5805040698842DED8606A05600098AA
:10416000854204D80020CBF80000B7E098E04FF07B
:104170001109B3E0A07920F04000A071206801236C
:1041800000F580502A4640785946FFF723FF002863
:1041900036D1A561A2E0FFE7E068A84203D2A17989
:1041A000890700D405464FF00008A068C4F80880CD
:1041B0002DB321680A4601F580518E7849894E4316
:1041C00078B1691EB1FBF6F100E066E0401EB0FB7D
:1041D000F6F3994205D3711E8843A0602D1A6169D8
:1041E0000CE0216949B900211046FFF77AFA01462F
:1041F000012852D0481C63D021616161E9B935E0E2
:104200005EE0A0798007206805D5FFF76AFA010013
:1042100004D1354613E000F01DFD0146481C4FD087
:1042200001293AD9206800F580504069884234D984
:104230006161A068AD1B3044A060B542E1D8A068C0
:1042400041F20A022844A0602068125AB5FBF2F33A
:1042500002FB135252B1FFF736FAF0B1216801F5B3
:1042600080514989B5FBF1F101EB00082068A16894
:1042700000F580504289B1FBF2F302FB131121B328
:10428000A269424521D0A17949060FD54078012382
:104290005946FFF7C5FE98B904E084F807A002204C
:1042A000BDE8FC9FA07920F04000A07120680123A8
:1042B00000F58050424640785946FFF78BFE10B11A
:1042C000E7710120ECE7C4F81880D4E902018842C4
:1042D00004D9E060A07940F02000A0714846DFE7F3
:1042E0002DE9F74181B0904602980090684600F0B1
:1042F00085FD040003D50B2004B0BDE8F081104E0D
:10430000002756F824502DB12846FFF7B3F905F5DC
:1043100080552F700198002803D000BF4FF48051C2
:104320000F5446F8240002D0B8F1010F01D000204C
:10433000E2E7002202A901A800F0E0FADCE70000B1
:10434000240000202DE9F74FADF58A5D98B100F506
:1043500080564FF0000802F01F0741F2441127F089
:10436000010269440DF58050C6F8008000F0C6FADD
:10437000040006D0D9E0092053B00DF5805DBDE8FA
:10438000F08F41F230110DF580506944816100F1E8
:104390002C010162EB46D0F84411584600F0E4FBD2
:1043A00004000DF5805045690BD11DB1780803D08C
:1043B000012102E0062404E000215846FFF726F917
:1043C000044617F01C0F74D04FF0010AE4B1042C1E
:1043D00013D10020574902E0401C022805D200EB0F
:1043E000400251F82220002AF6D1022803D0584674
:1043F000FFF798FC00E0122004460DF5805047F0CE
:104400000807456954B190E0E87A10F0110F01D027
:1044100007248AE0780701D5082486E0380756D5B6
:1044200000F08BFCA873010AE973010C2974000EDB
:10443000687485F80B8085F81C8085F81D8085F8E8
:104440001E800DF5805085F81F800068294600F019
:104450003FFD81460021284600F020FF0DF58050E9
:10446000B9F1000F006800F5805080F804A02CD04E
:104470000DF580504946006800F58050D0F82CA01A
:104480000DF58050006800F070FE04004DD10DF570
:104490008050A9F10101006800F58050C1600DF560
:1044A00080505146006800F0B5FD04000BD03CE0A0
:1044B000FFE7D4BBE87AC10601D5042435E0B9078B
:1044C00001D5C007A4D1380701D547F020070DF565
:1044D0008050006800F58050C06AC6E9070578087A
:1044E00001D0012100E00021584600F0A5FCB06297
:1044F000E8B1B7710DF5805086F80780474600682F
:10450000294600F0E5FC3061287FD5F81D1040EA0F
:104510000120C6E90270B7610DF58050776200682E
:10452000306000F58050C088B080204624E7022427
:10453000FBE7000038350020F3B5C7B006000BD00C
:10454000002248A9684600F0D9F905004FF000079D
:1045500006F5805403D032E0092049B0F0BD009840
:10456000206044A8A06102A820623046489900F06B
:10457000FBFA050013D1616931B1C87AC0061DD5B7
:10458000009800F0A5FCA0600098002100F5805084
:10459000C088A0803046FFF7A5FC050002D0042D9E
:1045A0000CD00CE0A06838B10021304600F044FC8B
:1045B000E06128B9122502E0E76101E005252760E6
:1045C0002846CAE72DE9F04F884687B00021994672
:1045D00015468346196000F0F3FE002812D10BF552
:1045E0008054E07900280DD1A079C00709D0D4E922
:1045F0000201081A01274FF0020A854200D9054638
:10460000A2E0072007B0BDE8F08F2068A16800F5A0
:1046100080535E89B1FBF6F206FB1212002A73D1B9
:10462000B1FBF6F29B785B1E1A4012F0FF0610D128
:1046300029B1626A2AB15846FFF72EF804E02069D2
:1046400002E0616900F006FB02281FD3411C55D02F
:10465000606161692068FFF736F8B8B130440090B6
:10466000206800F580504189B5FBF1F1039151B309
:10467000721881788A4201D9891B0391407841469A
:10468000039B009AFFF7A6FCC0BB03E084F807A0D9
:104690000220B7E7A07940060ED5A1690098081A54
:1046A0000399884208D2216801F580514A89594608
:1046B00000FB028000F09EFC206800F580504689D7
:1046C0000398464336E0A26900998A421AD0A1793C
:1046D000490609D5407801235946FFF7A1FC68B97E
:1046E000A07920F04000A0712068012300F58050DF
:1046F00059464078009AFFF76DFC18B1E771012028
:1047000080E701E00098A0612068A16800F5805072
:104710004089B1FBF0F200FB1212861AAE4200D9BA
:104720002E46B1FBF0F200FB1211594432464046CE
:1047300000F060FCA068B0443044A060D9F80000EC
:104740008119AD1BC9F80010002D7FF45EAF002069
:1047500058E7F0B5C5B00F46054600F031FE002819
:104760001BD1E7B105F5805441A8A061C4F820D061
:1047700000212846FFF756FA0026042814D0002806
:104780000BD13946284600F0DAFA00212846FFF717
:10479000BBF9042801D10020266145B0F0BD0021FD
:1047A0002846FFF79FFBF8E72661EAE770B5054664
:1047B00000F006FE002811D105F58054A1798A0683
:1047C0000CD548060FD52068012300F580502946F6
:1047D0004078A269FFF724FC08B1012070BDA079E0
:1047E00020F04000A071E169206800F013FC00286F
:1047F000F4D1256AE87A40F02000E872207B28771F
:10480000A089000A6877E068000CA877E068000ECD
:10481000E8772846216900F041FD00F08EFAA8757E
:10482000010AE975010C2976000E68760020A8744B
:10483000E874A079012120F02000A071206800F523
:10484000805001712068BDE8704000F03CBD000060
:1048500010B50246802A01DA10461BE051B1FF2A4A
:1048600001DD002304E0A2F180030B4C34F8133087
:1048700018460FE0002007E0074B33F81030934252
:1048800000D103E0431C98B28028F5DB00BF00F1A3
:104890008003D8B210BD0000B260000802460021BB
:1048A00000E0491C094830F8110020B1074830F8F1
:1048B00011009042F5D1054830F8110018B10448B4
:1048C00030F8110070471046FCE70000B2610008A4
:1048D0009263000810B50024224604E03CB18B54DA
:1048E000521CD2B2401C0378002BF7D110BD2E2BE6
:1048F000F8D18B54521CD2B20124F3E72DE9FF5FAB
:104900004FF0000B0546C0F800B01746084600F00F
:1049100075FA060003D50B2004B0BDE8F09F8F4860
:1049200050F826409CB12C6004F58055287820B1C1
:104930006878FFF767FBC1070BD085F800B0F0B2CD
:104940006870FFF71DFBC10708D00320E4E70C20C7
:10495000E2E70FB1400704D40020DDE71FB14007B4
:1049600001D50A20D8E741F20A01621868780221CD
:10497000FFF71CFB78BB6889B0F5007F34D3B0F536
:10498000805F31D8002631462046FEF707FE012819
:1049900026D100204FEA0D0204EB001191F8C2313C
:1049A00001F5DF712BB10B7AD1F8091043EA01212F
:1049B00000E0002142F82010401C0428ECD300271E
:1049C0004FEA020858F8276036B131462046FEF714
:1049D000E5FD10B90AE007E002207F1C042FF1D3A7
:1049E000032801D0F0BB01E0012095E7B4F80B00EB
:1049F000B5F80AC060455FD1E18A29B994F824006E
:104A0000D4F8251040EA0121A961207C8A46E8708B
:104A1000012801D002284FD100FB01F9607BA8706A
:104A200000B3411E084247D1B4F811104FEA5C129E
:104A3000B1FBF2F302FB131329819BB9B4F8137095
:104A40002FB994F82030D4F8217043EA0727E3897E
:104A500043B1B1FBF2F803EB0902424497422BD376
:104A6000BF1A00E028E0B7FBF0F028B3012740F6BA
:104A7000F678404500D302274FF6F678404500D33C
:104A80000327801C3244AA6233446861C5E9076386
:104A9000032F13D081B103EB09016962022F18D0F3
:104AA00000F0010100EB400001EB5000401E6044AB
:104AB000B0FBFCF151450ED90D202DE70029FBD1AB
:104AC00094F82C10D4F82D20800041EA022169626C
:104AD000ECE74000EAE74FF0FF302861E860802013
:104AE0006871032F2ED1208E01282BD12046711CF6
:104AF00000F090FA30BB85F805B0B4F8FE01A0F5DF
:104B00002A4155391ED12078D4F8011040EA0120FD
:104B10001349884216D194F8E401D4F8E51140EA2B
:104B20000120104988420DD194F8E801D4F8E91128
:104B300040EA0120286194F8EC01D4F8ED1140EA34
:104B40000120E86005492F70091F0888401C088073
:104B5000E8802046FEF78EFDFEE6000024000020DF
:104B6000525261417272416173B5054601980178F4
:104B70002F2901D05C2901D1401C019005F58054FA
:104B80000026A66001980078202805D2002128463A
:104B9000FFF7A8F966617CBD01A92846FEF7F4FD80
:104BA0000028F8D12846FEF70FFFA169C97A28B17D
:104BB0000428F0D14907EED405207CBD4907FCD478
:104BC0006169C87AC006F7D5206800F081F9A06055
:104BD000E2E700007CB516461C4605460B2200F0B5
:104BE00009FA052C11D91A4A0CE00021B61C2346FB
:104BF000044663F35F044008E30300D55440491CB6
:104C00001029F4D330880028EFD107214FEA0D0294
:104C100004F00F003030392800D9C01D5054491E0F
:104C20002409F5D17E205054002000E0401C884229
:104C300002D22B5C202BF9D1082902D2535C491CEB
:104C400000E020232B54401C0828F5D37CBD000035
:104C5000211001002DE9F0470D46074602290DD32A
:104C600007F580546069A84208D920784FF0FF36D4
:104C7000012807D0022832D0032844D0012630462C
:104C8000BDE8F087618905EB5508B8FBF1F0216AB2
:104C90000144384600F0BEF90028F0D16189B8FB24
:104CA000F1F201FB128008F1010817F80090B8FB3F
:104CB000F1F0216A0144384600F0ACF90028DED159
:104CC0006189B8FBF1F201FB1280395C49EA0120ED
:104CD000E90701D00609D2E7C0F30B06CFE76089E8
:104CE000216A4008B5FBF0F00144384600F092F923
:104CF0000028C4D161896800B0FBF1F201FB120009
:104D000038440688BBE76089216A8008B5FBF0F06B
:104D10000144384600F07EF90028B0D16189A8002E
:104D2000B0FBF1F201FB120038440178D0F8010029
:104D300041EA002020F07046A1E7002070472DE9ED
:104D4000F04100F580500C4601F10902016971B390
:104D5000002543692E26595D6D1C202919D005298F
:104D600000D1E521092D01D102F8016BA1F1410724
:104D7000192F0CD81F7B092D02D34FF0100C01E026
:104D80004FF0080C17EA0C0F01D02031C9B202F81D
:104D9000011B0B2DDFD3D97A2172197FD3F81D5057
:104DA00041EA05212160198BA180D98AE1804FF069
:104DB000000882F80080A669002E1DD00169002538
:104DC000C1B1E169B1B1818CA1F57F42FF3A11D047
:104DD000076A0BE00021FFF73BFD18B1E169491EAE
:104DE000A94201D8002505E070556D1C37F8020B6B
:104DF0000028EFD106F80580BDE8F08110B5044623
:104E00004FF0FF302268002A13D0114600E0491C01
:104E10000B78202B0ED33A2BF9D112F8013B303B03
:104E20000A2B06D28A4204D1002B02D1491C184613
:104E3000216010BD002010BDF0B500F5805323485F
:104E40001C68002202EB420550F82560A64209D1F9
:104E500000EB85059F686E68BE4203D12D89DE8810
:104E6000B54202D0521C022AECD3022A18D10022E9
:104E700002E0521C022A05D202EB420550F82550EE
:104E8000002DF6D1022A13D002EB420540F825404E
:104E900000EB85049E686660DB88238100236381C4
:104EA000002902EB420100EB8101498902D019B1CE
:104EB0000020F0BD491C01E04FF4807102EB420379
:104EC00000EB83004181501CF0BD0000383500200C
:104ED000024602F58052488B1278032A02D1898A51
:104EE00040EA014070470000ADF5125DFBF71EFF80
:104EF000FEF7A5FAFDF712FB2A48294901600021B7
:104F000041608160C16001614FF4804141610421D1
:104F10008161FDF7B9FAFDF7C5FAFDF76FFBFDF703
:104F2000A9F920483C218430FDF7CCF801221E4924
:104F30000DF58060FFF7D4F905466C464FF48061AB
:104F40002046FBF749FADDB1002220211748FBF784
:104F5000D5FE002116A20846FDF75EF9114D8435F5
:104F60002868406A4FF496762868426A12A1204663
:104F7000FBF754F9224631460020FDF74DF9F3E7DF
:104F800014A000F025F916A000F030FA41F23040EC
:104F90006844FFF75DF84FF47A70FBF7BDFCDDE77E
:104FA000008001402C33002001000020000C014053
:104FB0004747575000000000656E636F64657220BC
:104FC00076616C75653A2564202020202020202001
:104FD00020200000303A2F4D555349430000000077
:104FE00053616D706C652D7761762D66696C652EE9
:104FF0007761760004E000BF11F8013B00F8013B47
:10500000521EF9D27047C9B201E000F8011B521ECE
:10501000FBD270472DE9F04100F580540746E06A65
:105020000E460025B0420ED0384600F0A0F905002B
:1050300009D16078012332463946FEF7CBFF08B12B
:105040006E1E0125E6622846BDE8F0812DE9F04795
:1050500017460D460646022904D306F580546069BA
:10506000A84202D80220BDE8F087217807F0FF09A6
:105070004FF0010A012924D002295DD00329F1D182
:105080006089216A8008B5FBF0F001443046FFF7E3
:10509000C1FF0028E7D16289A900B1FBF2F302FB4E
:1050A00013118A194FF07043D2F8011003EA01215D
:1050B000394311700B0A53700B0C9370090ED170A9
:1050C00050E0618905EB5508B8FBF1F0216A014415
:1050D0003046FFF79FFF0028C5D16189B8FBF1F288
:1050E00001FB1280304408F10108E90703D0017880
:1050F00069F31F1100E03946017084F804A061894A
:10510000B8FBF1F0216A01443046FFF783FF002825
:10511000A9D16289B8FBF2F302FB13813144EA079B
:1051200002D0C7F3071205E00A78C7F3032302F0A1
:10513000F0021A430A7015E06089216A4008B5FB45
:10514000F0F001443046FFF765FF00288BD16289FB
:105150006900B1FBF2F302FB131131443A0A81F802
:1051600000904A7084F804A07DE72DE9F0410F46D5
:105170008046022918D308F580556869B84213D9CA
:1051800000261FE039464046FFF764FD04001CD0AE
:10519000012C09D0601C09D0002239464046FFF797
:1051A00055FF060011D103E002260EE001260CE0B7
:1051B0002869411C05D0401C2861687940F0010035
:1051C000687127466869B842DCD83046BDE8F0818E
:1051D0002DE9F047ADF58C5D7F21079126490691B9
:1051E000014608AE3046FFF7A7F9002840D141F24A
:1051F0004C056D444FF480712846FBF7EDF8002410
:105200006F4639463046FFF7A4FA069909782E29E9
:10521000F7D09DF8091000292AD0002828D1174876
:10522000069900EBC4108046FBF7A6F8424614A18D
:105230002846FAF7F3FF04EB84094FF6FF7101EA01
:1052400089012A460020FCF7E7FF40463146FFF778
:1052500041FB32460DA12846FAF7E0FF3C2101EB65
:10526000890081B22A460020FCF7D6FF641CC8E7FB
:105270000DF58C5DBDE8F0872C3200202C0000205D
:105280006E616D653A2025730000000066696C65EB
:1052900020747970653A20257300000081760A0A2F
:1052A000C2760A0C0275090E41757047014600204E
:1052B0000B22430803EBC01011F8013B521E1844A7
:1052C000C0B2F6D1704770B5044600F050F8060041
:1052D0004BD104F58055287803283FD168790128FF
:1052E0003CD16A8900212046FFF78DFE552084F8C5
:1052F000FE01AA2084F8FF01522020706070612016
:10530000A0704121E170722284F8E42184F8E52143
:1053100084F8E61184F8E701286984F8E801010AB5
:1053200084F8E911010C84F8EA11000E84F8EB010D
:10533000E86884F8EC01010A84F8ED11010C84F8A6
:10534000EE11000E84F8EF01EA690123521CEA62B3
:1053500068782146FEF764FE0020687100226878B4
:105360001146FEF723FE00B10126304670BD2DE93F
:10537000F04100F58054804620790027E8B1E56AC5
:10538000607801232A464146FEF74AFE08B101270C
:1053900013E000202071206AA169281A88420CD2EB
:1053A000E67808E0A0690123054460782A46414672
:1053B000FEF736FE761E022EF4D23846BDE8F081A6
:1053C00010B580B100F58050016861B101F58051E0
:1053D0000A7842B1CA888088824204D14878FEF7B0
:1053E00011FEC00700D0092010BD000070B5ADF55A
:1053F000B05D06468C210DF24450FAF7EDFF4FF4F4
:10540000806151A8FAF7E8FFFEA10DF24450FAF7C7
:10541000D7FF31460DF24450FAF7D2FF4FF48071B6
:1054200011A8FAF7D9FF01220DF244510DF2D45020
:10543000FEF788FF04210DF2D450FEF71EFE0DF595
:10544000BA63042211A9181DFFF7BCF89DF8451096
:105450009DF8442061F31F229DF8460042EA004176
:105460009DF8470041EA0060E94908600DF5805069
:10547000D0F8DC2502F108010DF2D450FEF7FDFD55
:105480000DF5BA63042211A9181DFFF79BF89DF8CA
:1054900045209DF8441062F31F219DF8460041EA23
:1054A00000419DF8470041EA0060D949486008463C
:1054B0000DF5BA6311A94268181DFFF783F89DF82E
:1054C0004400D34908729DF8460048729DF849206F
:1054D0009DF8481062F31F219DF84A0041EA0041FF
:1054E0009DF84B0041EA0061C948C1609DF84D102C
:1054F0009DF84C2061F31F229DF84E0042EA0041C6
:105500009DF84F0041EA0061C14801619DF85110CA
:105510009DF8500061F31F20BD4988829DF853100B
:105520009DF8520061F31F20B949C882C88A00EB78
:10553000D0714910A0EB410141B10DF58050D0F878
:10554000DC05411C0DF2D450FEF797FD0DF5BA6352
:10555000042211A9181DFFF735F800208DF8480026
:10556000ACA111A8FAF78AFFC8BB0DF5BA630422F3
:1055700011A9181DFFF726F89DF845209DF8441045
:1055800062F31F219DF8460041EA00419DF8470063
:1055900041EA00609E4988610DF58050D0F8DC0535
:1055A0000A46926981180DF2D450FEF766FD9848BC
:1055B000007E00F0010040B10DF58050D0F8DC0510
:1055C000411C0DF2D450FEF758FD0DF5BA630422CC
:1055D00011A9181DFEF7F6FF00208DF848008FA1D5
:1055E00011A8FAF74BFF00287ED10DF5BA6304220B
:1055F00011A9181DFEF7E6FF9DF845109DF84420FF
:1056000061F31F229DF8460042EA00419DF84700E1
:1056100041EA00607E49C86100210F911091002489
:1056200004257B48007F00F0010000B103250DF543
:105630008050D0F8DC05011D0DF2D450FEF71DFDA1
:1056400093E00DF5BA63082211A9181DFEF7BAFF01
:10565000042211A90FA8FAF7E6FE9DF849109DF85B
:10566000482061F31F229DF84A0042EA00419DF85C
:105670004B0041EA006404F10800054469A10FA849
:10568000FAF7FCFE68B90DF5BA63224611A9181D98
:10569000FEF798FF224611A95D482030FAF7C3FEB5
:1056A00056E062A10FA8FAF7E9FE68B90DF5BA63F2
:1056B000224611A9181DFEF785FF224611A954485C
:1056C0005630FAF7B0FE43E05AA10FA8FAF7D6FE1B
:1056D00078B90DF5BA63224611A9181DFEF772FFBD
:1056E000224611A94A4800E04FE08C30FAF79BFEB1
:1056F0002EE052A10FA8FAF7C1FE68B90DF5BA6302
:10570000224611A9181DFEF75DFF224611A9404847
:10571000C230FAF788FE1BE04AA10FA8FAF7AEFEE6
:1057200068B90DF5BA63224611A9181DFEF74AFFA4
:10573000224611A93648D230FAF775FE08E00DF579
:105740008050D0F8DC0501190DF2D450FEF795FC1D
:1057500004F0010048B10DF58050D0F8DC05411C83
:105760000DF2D450FEF789FC6D1C2948C069A8428F
:105770007FF467AF0DF5BA63042211A9181DFEF777
:1057800021FF00208DF8480000BF214A20322FA1C0
:1057900051A8FAF743FD51AA78210020FCF73CFDFF
:1057A0001B4A56322CA151A8FAF738FD51AA8C2178
:1057B0000020FCF731FD164A8C322AA151A8FAF7D5
:1057C0002DFD51AAA0210020FCF726FD104AC2326F
:1057D00027A151A8FAF722FD51AAB4210020FCF715
:1057E0001BFD0B4AD23225A151A8FAF717FD51AA89
:1057F000C8210020FCF710FD11AA23A151A8FAF737
:105800000DFD47E0303A2F4D555349432F0000001E
:105810004034002066616374000000004C4953541A
:10582000000000004941525400000000494E414D23
:105830000000000049505244000000004943524417
:105840000000000049474E52000000006172746978
:1058500073743A20257300007469746C653A2025CE
:1058600073000000616C62756D3A202573000000C2
:10587000446174653A2025730000000067656E720C
:10588000653A2025730000006275666665723A20ED
:105890002573000051AADC210020FCF7BDFC234841
:1058A000427A23A151A8FAF7B9FC51AAF0210020AD
:1058B000FCF7B2FC1D4822A1C26851A8FAF7AEFC61
:1058C00051AA4FF482710020FCF7A6FC1748C28A47
:1058D00020A151A8FAF7A2FC51AA4FF48C71002024
:1058E000FCF79AFC20A111A8FAF7C8FDB8B90DF58C
:1058F000BA63042211A9181DFEF764FE9DF8452025
:105900009DF8441062F31F219DF8460041EA0041D2
:105910009DF8470041EA00600449C1F8F4000DF227
:10592000D450FEF795FB0DF5B05D70BD40340020FE
:10593000736F756E645F63683A2025640000000031
:1059400073616D706C655F726174653A20256420C7
:10595000487A00006269745F7065725F73616D7090
:105960006C653A20256400006461746100000000E9
:105970000000000000000000000000000000000027
:10598000000000183C3C3C181800181800000000EB
:1059900000000066666600000000000000000000D5
:1059A0000000006C6CFE6C6C6CFE6C6C0000000007
:1059B0000018183C66060C183060663C1818000089
:1059C00000000E1B5B6E30180C76DAD870000000F9
:1059D0000000001C36361C06F66666DC000000007F
:1059E000000000181818000000000000000000006F
:1059F0000000003018180C0C0C0C0C1818300000AB
:105A00000000000C1818303030303018180C00002E
:105A100000000000006C38FE386C00000000000040
:105A2000000000000018187E181800000000000098
:105A300000000000000000000000383830180000AE
:105A4000000000000000007E0000000000000000D8
:105A500000000000000000000000383800000000D6
:105A60000000006060303018180C0C0606000000C2
:105A700000000078CCECECCCDCDCCC780000000042
:105A800000000030383E3030303030300000000050
:105A90000000003C66666030180C067E00000000C6
:105AA0000000003C666660386066663C00000000EE
:105AB0000000000C0C6C6C6C66FE60600000000066
:105AC0000000007E0606063E6060301E00000000FA
:105AD00000000038180C3E666666663C0000000058
